{
  "contractName": "Create",
  "abi": [
    {
      "anonymous": false,
      "inputs": [
        {
          "indexed": true,
          "internalType": "uint256",
          "name": "postID",
          "type": "uint256"
        },
        {
          "indexed": true,
          "internalType": "address",
          "name": "author",
          "type": "address"
        },
        {
          "indexed": false,
          "internalType": "string",
          "name": "content",
          "type": "string"
        }
      ],
      "name": "PostCreated",
      "type": "event"
    },
    {
      "anonymous": false,
      "inputs": [
        {
          "indexed": true,
          "internalType": "uint256",
          "name": "postID",
          "type": "uint256"
        }
      ],
      "name": "PostDeleted",
      "type": "event"
    },
    {
      "anonymous": false,
      "inputs": [
        {
          "indexed": true,
          "internalType": "uint256",
          "name": "postID",
          "type": "uint256"
        },
        {
          "indexed": true,
          "internalType": "address",
          "name": "user",
          "type": "address"
        }
      ],
      "name": "PostLiked",
      "type": "event"
    },
    {
      "inputs": [],
      "name": "postCount",
      "outputs": [
        {
          "internalType": "uint256",
          "name": "",
          "type": "uint256"
        }
      ],
      "stateMutability": "view",
      "type": "function",
      "constant": true
    },
    {
      "inputs": [
        {
          "internalType": "uint256",
          "name": "",
          "type": "uint256"
        }
      ],
      "name": "posts",
      "outputs": [
        {
          "internalType": "uint256",
          "name": "postID",
          "type": "uint256"
        },
        {
          "internalType": "address",
          "name": "author",
          "type": "address"
        },
        {
          "internalType": "string",
          "name": "content",
          "type": "string"
        },
        {
          "internalType": "string",
          "name": "photo",
          "type": "string"
        },
        {
          "internalType": "uint256",
          "name": "likes",
          "type": "uint256"
        },
        {
          "internalType": "uint256",
          "name": "timestamp",
          "type": "uint256"
        },
        {
          "internalType": "bool",
          "name": "exists",
          "type": "bool"
        }
      ],
      "stateMutability": "view",
      "type": "function",
      "constant": true
    },
    {
      "inputs": [
        {
          "internalType": "address",
          "name": "",
          "type": "address"
        },
        {
          "internalType": "uint256",
          "name": "",
          "type": "uint256"
        }
      ],
      "name": "userPosts",
      "outputs": [
        {
          "internalType": "uint256",
          "name": "",
          "type": "uint256"
        }
      ],
      "stateMutability": "view",
      "type": "function",
      "constant": true
    },
    {
      "inputs": [
        {
          "internalType": "string",
          "name": "_content",
          "type": "string"
        },
        {
          "internalType": "string",
          "name": "_photo",
          "type": "string"
        }
      ],
      "name": "createPost",
      "outputs": [],
      "stateMutability": "nonpayable",
      "type": "function"
    },
    {
      "inputs": [
        {
          "internalType": "uint256",
          "name": "_postID",
          "type": "uint256"
        }
      ],
      "name": "likePost",
      "outputs": [],
      "stateMutability": "nonpayable",
      "type": "function"
    },
    {
      "inputs": [
        {
          "internalType": "uint256",
          "name": "_postID",
          "type": "uint256"
        }
      ],
      "name": "deletePost",
      "outputs": [],
      "stateMutability": "nonpayable",
      "type": "function"
    },
    {
      "inputs": [
        {
          "internalType": "uint256",
          "name": "_postID",
          "type": "uint256"
        }
      ],
      "name": "getPost",
      "outputs": [
        {
          "internalType": "uint256",
          "name": "postID",
          "type": "uint256"
        },
        {
          "internalType": "address",
          "name": "author",
          "type": "address"
        },
        {
          "internalType": "string",
          "name": "content",
          "type": "string"
        },
        {
          "internalType": "string",
          "name": "photo",
          "type": "string"
        },
        {
          "internalType": "uint256",
          "name": "likes",
          "type": "uint256"
        },
        {
          "internalType": "uint256",
          "name": "timestamp",
          "type": "uint256"
        }
      ],
      "stateMutability": "view",
      "type": "function",
      "constant": true
    },
    {
      "inputs": [
        {
          "internalType": "address",
          "name": "_user",
          "type": "address"
        }
      ],
      "name": "getPostsByUser",
      "outputs": [
        {
          "internalType": "string[]",
          "name": "contents",
          "type": "string[]"
        },
        {
          "internalType": "string[]",
          "name": "photos",
          "type": "string[]"
        }
      ],
      "stateMutability": "view",
      "type": "function",
      "constant": true
    },
    {
      "inputs": [],
      "name": "getTotalPosts",
      "outputs": [
        {
          "internalType": "uint256",
          "name": "",
          "type": "uint256"
        }
      ],
      "stateMutability": "view",
      "type": "function",
      "constant": true
    }
  ],
  "bytecode": "0x60806040525f600255348015610013575f80fd5b506118c3806100215f395ff3fe608060405234801561000f575f80fd5b5060043610610091575f3560e01c8063392338f511610064578063392338f51461013657806340731c24146101525780635fe226b414610187578063725009d3146101a55780638064d149146101c157610091565b8063094cd5ee146100955780630b1e7f83146100b157806317906c2e146100e75780632853894914610105575b5f80fd5b6100af60048036038101906100aa9190610e82565b6101f1565b005b6100cb60048036038101906100c69190610e82565b61039e565b6040516100de9796959493929190610f9f565b60405180910390f35b6100ef610512565b6040516100fc919061101a565b60405180910390f35b61011f600480360381019061011a919061105d565b610518565b60405161012d92919061118b565b60405180910390f35b610150600480360381019061014b91906112ec565b6108a2565b005b61016c60048036038101906101679190610e82565b610a81565b60405161017e96959493929190611362565b60405180910390f35b61018f610ce4565b60405161019c919061101a565b60405180910390f35b6101bf60048036038101906101ba9190610e82565b610ced565b005b6101db60048036038101906101d691906113cf565b610dbb565b6040516101e8919061101a565b60405180910390f35b5f808281526020019081526020015f206006015f9054906101000a900460ff16610250576040517f08c379a000000000000000000000000000000000000000000000000000000000815260040161024790611457565b60405180910390fd5b3373ffffffffffffffffffffffffffffffffffffffff165f808381526020019081526020015f206001015f9054906101000a900473ffffffffffffffffffffffffffffffffffffffff1673ffffffffffffffffffffffffffffffffffffffff16146102f0576040517f08c379a00000000000000000000000000000000000000000000000000000000081526004016102e7906114e5565b60405180910390fd5b5f808281526020019081526020015f205f8082015f9055600182015f6101000a81549073ffffffffffffffffffffffffffffffffffffffff0219169055600282015f61033c9190610de6565b600382015f61034b9190610de6565b600482015f9055600582015f9055600682015f6101000a81549060ff02191690555050807f32d67e2131cd025eb20e7256680e338dedbe17b28943a11681860a9271ad119d60405160405180910390a250565b5f602052805f5260405f205f91509050805f015490806001015f9054906101000a900473ffffffffffffffffffffffffffffffffffffffff16908060020180546103e790611530565b80601f016020809104026020016040519081016040528092919081815260200182805461041390611530565b801561045e5780601f106104355761010080835404028352916020019161045e565b820191905f5260205f20905b81548152906001019060200180831161044157829003601f168201915b50505050509080600301805461047390611530565b80601f016020809104026020016040519081016040528092919081815260200182805461049f90611530565b80156104ea5780601f106104c1576101008083540402835291602001916104ea565b820191905f5260205f20905b8154815290600101906020018083116104cd57829003601f168201915b505050505090806004015490806005015490806006015f9054906101000a900460ff16905087565b60025481565b6060805f60015f8573ffffffffffffffffffffffffffffffffffffffff1673ffffffffffffffffffffffffffffffffffffffff1681526020019081526020015f208054806020026020016040519081016040528092919081815260200182805480156105a157602002820191905f5260205f20905b81548152602001906001019080831161058d575b505050505090505f815190508067ffffffffffffffff8111156105c7576105c66111c8565b5b6040519080825280602002602001820160405280156105fa57816020015b60608152602001906001900390816105e55790505b5093508067ffffffffffffffff811115610617576106166111c8565b5b60405190808252806020026020018201604052801561064a57816020015b60608152602001906001900390816106355790505b5092505f5b8181101561089a575f83828151811061066b5761066a611560565b5b602002602001015190505f805f8381526020019081526020015f206040518060e00160405290815f8201548152602001600182015f9054906101000a900473ffffffffffffffffffffffffffffffffffffffff1673ffffffffffffffffffffffffffffffffffffffff1673ffffffffffffffffffffffffffffffffffffffff1681526020016002820180546106ff90611530565b80601f016020809104026020016040519081016040528092919081815260200182805461072b90611530565b80156107765780601f1061074d57610100808354040283529160200191610776565b820191905f5260205f20905b81548152906001019060200180831161075957829003601f168201915b5050505050815260200160038201805461078f90611530565b80601f01602080910402602001604051908101604052809291908181526020018280546107bb90611530565b80156108065780601f106107dd57610100808354040283529160200191610806565b820191905f5260205f20905b8154815290600101906020018083116107e957829003601f168201915b505050505081526020016004820154815260200160058201548152602001600682015f9054906101000a900460ff1615151515815250509050806040015187848151811061085757610856611560565b5b6020026020010181905250806060015186848151811061087a57610879611560565b5b602002602001018190525050508080610892906115ba565b91505061064f565b505050915091565b60025f8154809291906108b4906115ba565b91905055506040518060e0016040528060025481526020013373ffffffffffffffffffffffffffffffffffffffff1681526020018381526020018281526020015f8152602001428152602001600115158152505f8060025481526020019081526020015f205f820151815f01556020820151816001015f6101000a81548173ffffffffffffffffffffffffffffffffffffffff021916908373ffffffffffffffffffffffffffffffffffffffff160217905550604082015181600201908161097c919061179e565b506060820151816003019081610992919061179e565b506080820151816004015560a0820151816005015560c0820151816006015f6101000a81548160ff02191690831515021790555090505060015f3373ffffffffffffffffffffffffffffffffffffffff1673ffffffffffffffffffffffffffffffffffffffff1681526020019081526020015f20600254908060018154018082558091505060019003905f5260205f20015f90919091909150553373ffffffffffffffffffffffffffffffffffffffff166002547f8e40a51278abe2f4b410c0a96ff0bdd024b22666ca334062bf72afd596984bd684604051610a75919061186d565b60405180910390a35050565b5f806060805f805f808881526020019081526020015f206006015f9054906101000a900460ff16610ae7576040517f08c379a0000000000000000000000000000000000000000000000000000000008152600401610ade90611457565b60405180910390fd5b5f805f8981526020019081526020015f206040518060e00160405290815f8201548152602001600182015f9054906101000a900473ffffffffffffffffffffffffffffffffffffffff1673ffffffffffffffffffffffffffffffffffffffff1673ffffffffffffffffffffffffffffffffffffffff168152602001600282018054610b7190611530565b80601f0160208091040260200160405190810160405280929190818152602001828054610b9d90611530565b8015610be85780601f10610bbf57610100808354040283529160200191610be8565b820191905f5260205f20905b815481529060010190602001808311610bcb57829003601f168201915b50505050508152602001600382018054610c0190611530565b80601f0160208091040260200160405190810160405280929190818152602001828054610c2d90611530565b8015610c785780601f10610c4f57610100808354040283529160200191610c78565b820191905f5260205f20905b815481529060010190602001808311610c5b57829003601f168201915b505050505081526020016004820154815260200160058201548152602001600682015f9054906101000a900460ff1615151515815250509050805f015181602001518260400151836060015184608001518560a001519650965096509650965096505091939550919395565b5f600254905090565b5f808281526020019081526020015f206006015f9054906101000a900460ff16610d4c576040517f08c379a0000000000000000000000000000000000000000000000000000000008152600401610d4390611457565b60405180910390fd5b5f808281526020019081526020015f206004015f815480929190610d6f906115ba565b91905055503373ffffffffffffffffffffffffffffffffffffffff16817fcf765d6f163c9b0d832e2a94f4c8e9bffd32a2c3ca5fdbb8cc67b5fe1441f41360405160405180910390a350565b6001602052815f5260405f208181548110610dd4575f80fd5b905f5260205f20015f91509150505481565b508054610df290611530565b5f825580601f10610e035750610e20565b601f0160209004905f5260205f2090810190610e1f9190610e23565b5b50565b5b80821115610e3a575f815f905550600101610e24565b5090565b5f604051905090565b5f80fd5b5f80fd5b5f819050919050565b610e6181610e4f565b8114610e6b575f80fd5b50565b5f81359050610e7c81610e58565b92915050565b5f60208284031215610e9757610e96610e47565b5b5f610ea484828501610e6e565b91505092915050565b610eb681610e4f565b82525050565b5f73ffffffffffffffffffffffffffffffffffffffff82169050919050565b5f610ee582610ebc565b9050919050565b610ef581610edb565b82525050565b5f81519050919050565b5f82825260208201905092915050565b5f5b83811015610f32578082015181840152602081019050610f17565b5f8484015250505050565b5f601f19601f8301169050919050565b5f610f5782610efb565b610f618185610f05565b9350610f71818560208601610f15565b610f7a81610f3d565b840191505092915050565b5f8115159050919050565b610f9981610f85565b82525050565b5f60e082019050610fb25f83018a610ead565b610fbf6020830189610eec565b8181036040830152610fd18188610f4d565b90508181036060830152610fe58187610f4d565b9050610ff46080830186610ead565b61100160a0830185610ead565b61100e60c0830184610f90565b98975050505050505050565b5f60208201905061102d5f830184610ead565b92915050565b61103c81610edb565b8114611046575f80fd5b50565b5f8135905061105781611033565b92915050565b5f6020828403121561107257611071610e47565b5b5f61107f84828501611049565b91505092915050565b5f81519050919050565b5f82825260208201905092915050565b5f819050602082019050919050565b5f82825260208201905092915050565b5f6110cb82610efb565b6110d581856110b1565b93506110e5818560208601610f15565b6110ee81610f3d565b840191505092915050565b5f61110483836110c1565b905092915050565b5f602082019050919050565b5f61112282611088565b61112c8185611092565b93508360208202850161113e856110a2565b805f5b85811015611179578484038952815161115a85826110f9565b94506111658361110c565b925060208a01995050600181019050611141565b50829750879550505050505092915050565b5f6040820190508181035f8301526111a38185611118565b905081810360208301526111b78184611118565b90509392505050565b5f80fd5b5f80fd5b7f4e487b71000000000000000000000000000000000000000000000000000000005f52604160045260245ffd5b6111fe82610f3d565b810181811067ffffffffffffffff8211171561121d5761121c6111c8565b5b80604052505050565b5f61122f610e3e565b905061123b82826111f5565b919050565b5f67ffffffffffffffff82111561125a576112596111c8565b5b61126382610f3d565b9050602081019050919050565b828183375f83830152505050565b5f61129061128b84611240565b611226565b9050828152602081018484840111156112ac576112ab6111c4565b5b6112b7848285611270565b509392505050565b5f82601f8301126112d3576112d26111c0565b5b81356112e384826020860161127e565b91505092915050565b5f806040838503121561130257611301610e47565b5b5f83013567ffffffffffffffff81111561131f5761131e610e4b565b5b61132b858286016112bf565b925050602083013567ffffffffffffffff81111561134c5761134b610e4b565b5b611358858286016112bf565b9150509250929050565b5f60c0820190506113755f830189610ead565b6113826020830188610eec565b81810360408301526113948187610f4d565b905081810360608301526113a88186610f4d565b90506113b76080830185610ead565b6113c460a0830184610ead565b979650505050505050565b5f80604083850312156113e5576113e4610e47565b5b5f6113f285828601611049565b925050602061140385828601610e6e565b9150509250929050565b7f506f737420646f6573206e6f74206578697374000000000000000000000000005f82015250565b5f611441601383610f05565b915061144c8261140d565b602082019050919050565b5f6020820190508181035f83015261146e81611435565b9050919050565b7f4f6e6c792074686520617574686f722063616e2064656c6574652074686973205f8201527f706f737400000000000000000000000000000000000000000000000000000000602082015250565b5f6114cf602483610f05565b91506114da82611475565b604082019050919050565b5f6020820190508181035f8301526114fc816114c3565b9050919050565b7f4e487b71000000000000000000000000000000000000000000000000000000005f52602260045260245ffd5b5f600282049050600182168061154757607f821691505b60208210810361155a57611559611503565b5b50919050565b7f4e487b71000000000000000000000000000000000000000000000000000000005f52603260045260245ffd5b7f4e487b71000000000000000000000000000000000000000000000000000000005f52601160045260245ffd5b5f6115c482610e4f565b91507fffffffffffffffffffffffffffffffffffffffffffffffffffffffffffffffff82036115f6576115f561158d565b5b600182019050919050565b5f819050815f5260205f209050919050565b5f6020601f8301049050919050565b5f82821b905092915050565b5f6008830261165d7fffffffffffffffffffffffffffffffffffffffffffffffffffffffffffffffff82611622565b6116678683611622565b95508019841693508086168417925050509392505050565b5f819050919050565b5f6116a261169d61169884610e4f565b61167f565b610e4f565b9050919050565b5f819050919050565b6116bb83611688565b6116cf6116c7826116a9565b84845461162e565b825550505050565b5f90565b6116e36116d7565b6116ee8184846116b2565b505050565b5b81811015611711576117065f826116db565b6001810190506116f4565b5050565b601f8211156117565761172781611601565b61173084611613565b8101602085101561173f578190505b61175361174b85611613565b8301826116f3565b50505b505050565b5f82821c905092915050565b5f6117765f198460080261175b565b1980831691505092915050565b5f61178e8383611767565b9150826002028217905092915050565b6117a782610efb565b67ffffffffffffffff8111156117c0576117bf6111c8565b5b6117ca8254611530565b6117d5828285611715565b5f60209050601f831160018114611806575f84156117f4578287015190505b6117fe8582611783565b865550611865565b601f19841661181486611601565b5f5b8281101561183b57848901518255600182019150602085019450602081019050611816565b868310156118585784890151611854601f891682611767565b8355505b6001600288020188555050505b505050505050565b5f6020820190508181035f8301526118858184610f4d565b90509291505056fea264697066735822122030ff7fc6330ff7beef018153ac7b2a77e6317c7d47a9169cd2d47e5f7e2ae16864736f6c63430008150033",
  "immutableReferences": {},
  "source": "// SPDX-License-Identifier: MIT\r\npragma solidity ^0.8.0;\r\n\r\ncontract Create {\r\n\r\n    struct Post {\r\n        uint256 postID;\r\n        address author;           // User address\r\n        string content;           // Post content\r\n        string photo;             // Photo URL or IPFS hash\r\n        uint256 likes;            // Count of likes\r\n        uint256 timestamp;        // Time of creation\r\n        bool exists;              // Check if post exists\r\n    }\r\n\r\n    mapping(uint256 => Post) public posts;  // Mapping of postID to Post\r\n    mapping(address => uint256[]) public userPosts; // Mapping user's address to an array of post IDs\r\n    uint256 public postCount = 0; // To track the number of posts\r\n\r\n    event PostCreated(uint256 indexed postID, address indexed author, string content);\r\n    event PostLiked(uint256 indexed postID, address indexed user);\r\n    event PostDeleted(uint256 indexed postID);\r\n\r\n    // Function to create a post with optional photo\r\n    function createPost(string memory _content, string memory _photo) public {\r\n        postCount++;\r\n        posts[postCount] = Post(postCount, msg.sender, _content, _photo, 0, block.timestamp, true);\r\n        userPosts[msg.sender].push(postCount);\r\n\r\n        emit PostCreated(postCount, msg.sender, _content);\r\n    }\r\n\r\n    // Function to like a post\r\n    function likePost(uint256 _postID) public {\r\n        require(posts[_postID].exists, \"Post does not exist\");\r\n        posts[_postID].likes++;\r\n\r\n        emit PostLiked(_postID, msg.sender);\r\n    }\r\n\r\n    // Function to delete a post by the author\r\n    function deletePost(uint256 _postID) public {\r\n        require(posts[_postID].exists, \"Post does not exist\");\r\n        require(posts[_postID].author == msg.sender, \"Only the author can delete this post\");\r\n\r\n        delete posts[_postID];\r\n        emit PostDeleted(_postID);\r\n    }\r\n\r\n    // Refactored function to get post details by postID\r\n    function getPost(uint256 _postID) public view returns (\r\n        uint256 postID,\r\n        address author,\r\n        string memory content,\r\n        string memory photo,\r\n        uint256 likes,\r\n        uint256 timestamp\r\n    ) {\r\n        require(posts[_postID].exists, \"Post does not exist\");\r\n\r\n        Post memory post = posts[_postID];\r\n        return (\r\n            post.postID,\r\n            post.author,\r\n            post.content,\r\n            post.photo,\r\n            post.likes,\r\n            post.timestamp\r\n        );\r\n    }\r\n\r\n    // Refactored function to get posts created by a specific user\r\n     function getPostsByUser(address _user) public view returns (string[] memory contents, string[] memory photos) {\r\n        uint256[] memory userPostIDs = userPosts[_user];\r\n        uint256 numPosts = userPostIDs.length;\r\n\r\n        // Initialize arrays to hold post contents and photos\r\n        contents = new string[](numPosts);\r\n        photos = new string[](numPosts);\r\n\r\n        for (uint256 i = 0; i < numPosts; i++) {\r\n            uint256 postID = userPostIDs[i];\r\n            Post memory post = posts[postID];\r\n\r\n            contents[i] = post.content;\r\n            photos[i] = post.photo;\r\n        }\r\n\r\n        return (contents, photos);\r\n    }\r\n\r\n    // Function to get the total number of posts\r\n    function getTotalPosts() public view returns (uint256) {\r\n        return postCount;\r\n    }\r\n\r\n}",
  "sourcePath": "/mnt/c/Users/dell/Documents/SocialX/contracts/create.sol",
  "compiler": {
    "name": "solc",
    "version": "0.8.21+commit.d9974bed.Emscripten.clang"
  },
  "schemaVersion": "3.4.16",
  "updatedAt": "2024-09-27T21:01:17.305Z",
  "networkType": "ethereum",
  "devdoc": {
    "kind": "dev",
    "methods": {},
    "version": 1
  },
  "userdoc": {
    "kind": "user",
    "methods": {},
    "version": 1
  }
}