{
  "contractName": "Create",
  "abi": [
    {
      "inputs": [
        {
          "internalType": "address",
          "name": "_registrationContract",
          "type": "address"
        }
      ],
      "stateMutability": "nonpayable",
      "type": "constructor"
    },
    {
      "anonymous": false,
      "inputs": [
        {
          "indexed": true,
          "internalType": "uint256",
          "name": "postID",
          "type": "uint256"
        },
        {
          "indexed": true,
          "internalType": "address",
          "name": "author",
          "type": "address"
        },
        {
          "indexed": false,
          "internalType": "string",
          "name": "content",
          "type": "string"
        }
      ],
      "name": "PostCreated",
      "type": "event"
    },
    {
      "anonymous": false,
      "inputs": [
        {
          "indexed": true,
          "internalType": "uint256",
          "name": "postID",
          "type": "uint256"
        }
      ],
      "name": "PostDeleted",
      "type": "event"
    },
    {
      "anonymous": false,
      "inputs": [
        {
          "indexed": true,
          "internalType": "uint256",
          "name": "postID",
          "type": "uint256"
        },
        {
          "indexed": true,
          "internalType": "address",
          "name": "user",
          "type": "address"
        }
      ],
      "name": "PostLiked",
      "type": "event"
    },
    {
      "anonymous": false,
      "inputs": [
        {
          "indexed": true,
          "internalType": "address",
          "name": "userAddress",
          "type": "address"
        },
        {
          "indexed": false,
          "internalType": "uint256",
          "name": "uniqueID",
          "type": "uint256"
        },
        {
          "indexed": false,
          "internalType": "string",
          "name": "username",
          "type": "string"
        }
      ],
      "name": "UserRegistered",
      "type": "event"
    },
    {
      "anonymous": false,
      "inputs": [
        {
          "indexed": true,
          "internalType": "address",
          "name": "userAddress",
          "type": "address"
        }
      ],
      "name": "UserRemoved",
      "type": "event"
    },
    {
      "stateMutability": "nonpayable",
      "type": "fallback"
    },
    {
      "inputs": [],
      "name": "admin",
      "outputs": [
        {
          "internalType": "address",
          "name": "",
          "type": "address"
        }
      ],
      "stateMutability": "view",
      "type": "function"
    },
    {
      "inputs": [],
      "name": "getAllUsers",
      "outputs": [
        {
          "internalType": "address[]",
          "name": "",
          "type": "address[]"
        }
      ],
      "stateMutability": "view",
      "type": "function"
    },
    {
      "inputs": [
        {
          "internalType": "address",
          "name": "userAddress",
          "type": "address"
        }
      ],
      "name": "getUserDetails",
      "outputs": [
        {
          "internalType": "uint256",
          "name": "uniqueID",
          "type": "uint256"
        },
        {
          "internalType": "string",
          "name": "username",
          "type": "string"
        },
        {
          "internalType": "string",
          "name": "firstName",
          "type": "string"
        },
        {
          "internalType": "string",
          "name": "lastName",
          "type": "string"
        },
        {
          "internalType": "uint256",
          "name": "dateOfBirth",
          "type": "uint256"
        }
      ],
      "stateMutability": "view",
      "type": "function"
    },
    {
      "inputs": [],
      "name": "isUserRegistered",
      "outputs": [
        {
          "internalType": "bool",
          "name": "",
          "type": "bool"
        }
      ],
      "stateMutability": "view",
      "type": "function"
    },
    {
      "inputs": [],
      "name": "postCount",
      "outputs": [
        {
          "internalType": "uint256",
          "name": "",
          "type": "uint256"
        }
      ],
      "stateMutability": "view",
      "type": "function"
    },
    {
      "inputs": [
        {
          "internalType": "uint256",
          "name": "",
          "type": "uint256"
        }
      ],
      "name": "posts",
      "outputs": [
        {
          "internalType": "uint256",
          "name": "postID",
          "type": "uint256"
        },
        {
          "internalType": "address",
          "name": "author",
          "type": "address"
        },
        {
          "internalType": "string",
          "name": "content",
          "type": "string"
        },
        {
          "internalType": "string",
          "name": "photo",
          "type": "string"
        },
        {
          "internalType": "uint256",
          "name": "likes",
          "type": "uint256"
        },
        {
          "internalType": "uint256",
          "name": "timestamp",
          "type": "uint256"
        },
        {
          "internalType": "bool",
          "name": "exists",
          "type": "bool"
        }
      ],
      "stateMutability": "view",
      "type": "function"
    },
    {
      "inputs": [
        {
          "internalType": "string",
          "name": "_username",
          "type": "string"
        },
        {
          "internalType": "string",
          "name": "_firstName",
          "type": "string"
        },
        {
          "internalType": "string",
          "name": "_lastName",
          "type": "string"
        },
        {
          "internalType": "uint256",
          "name": "_dob",
          "type": "uint256"
        },
        {
          "internalType": "string",
          "name": "_email",
          "type": "string"
        }
      ],
      "name": "registerUser",
      "outputs": [],
      "stateMutability": "nonpayable",
      "type": "function"
    },
    {
      "inputs": [
        {
          "internalType": "address",
          "name": "userAddress",
          "type": "address"
        }
      ],
      "name": "removeUser",
      "outputs": [],
      "stateMutability": "nonpayable",
      "type": "function"
    },
    {
      "inputs": [
        {
          "internalType": "string",
          "name": "_username",
          "type": "string"
        },
        {
          "internalType": "string",
          "name": "_firstName",
          "type": "string"
        },
        {
          "internalType": "string",
          "name": "_lastName",
          "type": "string"
        },
        {
          "internalType": "uint256",
          "name": "_dob",
          "type": "uint256"
        }
      ],
      "name": "updateUser",
      "outputs": [],
      "stateMutability": "nonpayable",
      "type": "function"
    },
    {
      "inputs": [
        {
          "internalType": "uint256",
          "name": "",
          "type": "uint256"
        }
      ],
      "name": "userAddresses",
      "outputs": [
        {
          "internalType": "address",
          "name": "",
          "type": "address"
        }
      ],
      "stateMutability": "view",
      "type": "function"
    },
    {
      "inputs": [
        {
          "internalType": "address",
          "name": "",
          "type": "address"
        },
        {
          "internalType": "uint256",
          "name": "",
          "type": "uint256"
        }
      ],
      "name": "userPosts",
      "outputs": [
        {
          "internalType": "uint256",
          "name": "",
          "type": "uint256"
        }
      ],
      "stateMutability": "view",
      "type": "function"
    },
    {
      "inputs": [
        {
          "internalType": "string",
          "name": "_content",
          "type": "string"
        },
        {
          "internalType": "string",
          "name": "_photo",
          "type": "string"
        }
      ],
      "name": "createPost",
      "outputs": [],
      "stateMutability": "nonpayable",
      "type": "function"
    },
    {
      "inputs": [
        {
          "internalType": "uint256",
          "name": "_postID",
          "type": "uint256"
        }
      ],
      "name": "likePost",
      "outputs": [],
      "stateMutability": "nonpayable",
      "type": "function"
    },
    {
      "inputs": [
        {
          "internalType": "uint256",
          "name": "_postID",
          "type": "uint256"
        }
      ],
      "name": "deletePost",
      "outputs": [],
      "stateMutability": "nonpayable",
      "type": "function"
    },
    {
      "inputs": [
        {
          "internalType": "uint256",
          "name": "_postID",
          "type": "uint256"
        }
      ],
      "name": "createDeletionProposal",
      "outputs": [],
      "stateMutability": "nonpayable",
      "type": "function"
    },
    {
      "inputs": [
        {
          "internalType": "uint256",
          "name": "_postID",
          "type": "uint256"
        }
      ],
      "name": "getPost",
      "outputs": [
        {
          "components": [
            {
              "internalType": "uint256",
              "name": "postID",
              "type": "uint256"
            },
            {
              "internalType": "address",
              "name": "author",
              "type": "address"
            },
            {
              "internalType": "string",
              "name": "content",
              "type": "string"
            },
            {
              "internalType": "string",
              "name": "photo",
              "type": "string"
            },
            {
              "internalType": "uint256",
              "name": "likes",
              "type": "uint256"
            },
            {
              "internalType": "uint256",
              "name": "timestamp",
              "type": "uint256"
            },
            {
              "internalType": "bool",
              "name": "exists",
              "type": "bool"
            }
          ],
          "internalType": "struct Create.Post",
          "name": "",
          "type": "tuple"
        }
      ],
      "stateMutability": "view",
      "type": "function"
    },
    {
      "inputs": [
        {
          "internalType": "address",
          "name": "_user",
          "type": "address"
        }
      ],
      "name": "getUserPosts",
      "outputs": [
        {
          "internalType": "uint256[]",
          "name": "",
          "type": "uint256[]"
        }
      ],
      "stateMutability": "view",
      "type": "function"
    },
    {
      "inputs": [],
      "name": "getTotalPosts",
      "outputs": [
        {
          "internalType": "uint256",
          "name": "",
          "type": "uint256"
        }
      ],
      "stateMutability": "view",
      "type": "function"
    }
  ],
  "bytecode": "0x60806040525f60085534801562000014575f80fd5b506040516200309d3803806200309d83398181016040528101906200003a91906200013a565b3360035f6101000a81548173ffffffffffffffffffffffffffffffffffffffff021916908373ffffffffffffffffffffffffffffffffffffffff16021790555073df6d54c5bb152a0bb171eca423ea2eb8627126fb60055f6101000a81548173ffffffffffffffffffffffffffffffffffffffff021916908373ffffffffffffffffffffffffffffffffffffffff160217905550506200016a565b5f80fd5b5f73ffffffffffffffffffffffffffffffffffffffff82169050919050565b5f6200010482620000d9565b9050919050565b6200011681620000f8565b811462000121575f80fd5b50565b5f8151905062000134816200010b565b92915050565b5f60208284031215620001525762000151620000d5565b5b5f620001618482850162000124565b91505092915050565b612f2580620001785f395ff3fe608060405234801561000f575f80fd5b5060043610610118575f3560e01c8063873138f3116100a0578063c1976b831161006f578063c1976b8314610330578063cc3d967b1461034c578063e1260a1914610380578063e2842d791461039c578063f851a440146103ba57610119565b8063873138f3146102aa57806398575188146102c85780639a2194a9146102e4578063b0cace061461031457610119565b806340731c24116100e757806340731c24146101e0578063502c9bd5146102105780635fe226b414610240578063725009d31461025e5780638064d1491461027a57610119565b8063094cd5ee146101545780630b1e7f831461017057806317906c2e146101a6578063392338f5146101c457610119565b5b6040517f08c379a000000000000000000000000000000000000000000000000000000000815260040161014b90611da0565b60405180910390fd5b61016e60048036038101906101699190611e02565b6103d8565b005b61018a60048036038101906101859190611e02565b610588565b60405161019d9796959493929190611f0f565b60405180910390f35b6101ae6106fd565b6040516101bb9190611f8a565b60405180910390f35b6101de60048036038101906101d991906120cf565b610703565b005b6101fa60048036038101906101f59190611e02565b61096e565b604051610207919061225a565b60405180910390f35b61022a60048036038101906102259190611e02565b610ba5565b604051610237919061227a565b60405180910390f35b610248610be0565b6040516102559190611f8a565b60405180910390f35b61027860048036038101906102739190611e02565b610be9565b005b610294600480360381019061028f91906122bd565b610d44565b6040516102a19190611f8a565b60405180910390f35b6102b2610d6f565b6040516102bf91906122fb565b60405180910390f35b6102e260048036038101906102dd9190612314565b610dc1565b005b6102fe60048036038101906102f99190612314565b610fad565b60405161030b91906123e7565b60405180910390f35b61032e60048036038101906103299190612407565b611040565b005b61034a600480360381019061034591906124ee565b61141b565b005b61036660048036038101906103619190612314565b6116f5565b6040516103779594939291906125a6565b60405180910390f35b61039a60048036038101906103959190611e02565b6119da565b005b6103a4611b8f565b6040516103b191906126b4565b60405180910390f35b6103c2611c1a565b6040516103cf919061227a565b60405180910390f35b60065f8281526020019081526020015f206006015f9054906101000a900460ff16610438576040517f08c379a000000000000000000000000000000000000000000000000000000000815260040161042f9061271e565b60405180910390fd5b3373ffffffffffffffffffffffffffffffffffffffff1660065f8381526020019081526020015f206001015f9054906101000a900473ffffffffffffffffffffffffffffffffffffffff1673ffffffffffffffffffffffffffffffffffffffff16146104d9576040517f08c379a00000000000000000000000000000000000000000000000000000000081526004016104d0906127ac565b60405180910390fd5b60065f8281526020019081526020015f205f8082015f9055600182015f6101000a81549073ffffffffffffffffffffffffffffffffffffffff0219169055600282015f6105269190611c78565b600382015f6105359190611c78565b600482015f9055600582015f9055600682015f6101000a81549060ff02191690555050807f32d67e2131cd025eb20e7256680e338dedbe17b28943a11681860a9271ad119d60405160405180910390a250565b6006602052805f5260405f205f91509050805f015490806001015f9054906101000a900473ffffffffffffffffffffffffffffffffffffffff16908060020180546105d2906127f7565b80601f01602080910402602001604051908101604052809291908181526020018280546105fe906127f7565b80156106495780601f1061062057610100808354040283529160200191610649565b820191905f5260205f20905b81548152906001019060200180831161062c57829003601f168201915b50505050509080600301805461065e906127f7565b80601f016020809104026020016040519081016040528092919081815260200182805461068a906127f7565b80156106d55780601f106106ac576101008083540402835291602001916106d5565b820191905f5260205f20905b8154815290600101906020018083116106b857829003601f168201915b505050505090806004015490806005015490806006015f9054906101000a900460ff16905087565b60085481565b5f803373ffffffffffffffffffffffffffffffffffffffff1673ffffffffffffffffffffffffffffffffffffffff1681526020019081526020015f206005015f9054906101000a900460ff1661078e576040517f08c379a000000000000000000000000000000000000000000000000000000000815260040161078590612871565b60405180910390fd5b60085f8154809291906107a0906128bc565b91905055506040518060e0016040528060085481526020013373ffffffffffffffffffffffffffffffffffffffff1681526020018381526020018281526020015f81526020014281526020016001151581525060065f60085481526020019081526020015f205f820151815f01556020820151816001015f6101000a81548173ffffffffffffffffffffffffffffffffffffffff021916908373ffffffffffffffffffffffffffffffffffffffff16021790555060408201518160020190816108699190612aa0565b50606082015181600301908161087f9190612aa0565b506080820151816004015560a0820151816005015560c0820151816006015f6101000a81548160ff02191690831515021790555090505060075f3373ffffffffffffffffffffffffffffffffffffffff1673ffffffffffffffffffffffffffffffffffffffff1681526020019081526020015f20600854908060018154018082558091505060019003905f5260205f20015f90919091909150553373ffffffffffffffffffffffffffffffffffffffff166008547f8e40a51278abe2f4b410c0a96ff0bdd024b22666ca334062bf72afd596984bd6846040516109629190612b6f565b60405180910390a35050565b610976611cb5565b60065f8381526020019081526020015f206006015f9054906101000a900460ff166109d6576040517f08c379a00000000000000000000000000000000000000000000000000000000081526004016109cd9061271e565b60405180910390fd5b60065f8381526020019081526020015f206040518060e00160405290815f8201548152602001600182015f9054906101000a900473ffffffffffffffffffffffffffffffffffffffff1673ffffffffffffffffffffffffffffffffffffffff1673ffffffffffffffffffffffffffffffffffffffff168152602001600282018054610a60906127f7565b80601f0160208091040260200160405190810160405280929190818152602001828054610a8c906127f7565b8015610ad75780601f10610aae57610100808354040283529160200191610ad7565b820191905f5260205f20905b815481529060010190602001808311610aba57829003601f168201915b50505050508152602001600382018054610af0906127f7565b80601f0160208091040260200160405190810160405280929190818152602001828054610b1c906127f7565b8015610b675780601f10610b3e57610100808354040283529160200191610b67565b820191905f5260205f20905b815481529060010190602001808311610b4a57829003601f168201915b505050505081526020016004820154815260200160058201548152602001600682015f9054906101000a900460ff1615151515815250509050919050565b60048181548110610bb4575f80fd5b905f5260205f20015f915054906101000a900473ffffffffffffffffffffffffffffffffffffffff1681565b5f600854905090565b5f803373ffffffffffffffffffffffffffffffffffffffff1673ffffffffffffffffffffffffffffffffffffffff1681526020019081526020015f206005015f9054906101000a900460ff16610c74576040517f08c379a0000000000000000000000000000000000000000000000000000000008152600401610c6b90612871565b60405180910390fd5b60065f8281526020019081526020015f206006015f9054906101000a900460ff16610cd4576040517f08c379a0000000000000000000000000000000000000000000000000000000008152600401610ccb9061271e565b60405180910390fd5b60065f8281526020019081526020015f206004015f815480929190610cf8906128bc565b91905055503373ffffffffffffffffffffffffffffffffffffffff16817fcf765d6f163c9b0d832e2a94f4c8e9bffd32a2c3ca5fdbb8cc67b5fe1441f41360405160405180910390a350565b6007602052815f5260405f208181548110610d5d575f80fd5b905f5260205f20015f91509150505481565b5f805f3373ffffffffffffffffffffffffffffffffffffffff1673ffffffffffffffffffffffffffffffffffffffff1681526020019081526020015f206005015f9054906101000a900460ff16905090565b60035f9054906101000a900473ffffffffffffffffffffffffffffffffffffffff1673ffffffffffffffffffffffffffffffffffffffff163373ffffffffffffffffffffffffffffffffffffffff1614610e50576040517f08c379a0000000000000000000000000000000000000000000000000000000008152600401610e4790612bff565b60405180910390fd5b5f808273ffffffffffffffffffffffffffffffffffffffff1673ffffffffffffffffffffffffffffffffffffffff1681526020019081526020015f206005015f9054906101000a900460ff16610edb576040517f08c379a0000000000000000000000000000000000000000000000000000000008152600401610ed290612871565b60405180910390fd5b5f808273ffffffffffffffffffffffffffffffffffffffff1673ffffffffffffffffffffffffffffffffffffffff1681526020019081526020015f205f8082015f9055600182015f610f2d9190611c78565b600282015f610f3c9190611c78565b600382015f610f4b9190611c78565b600482015f9055600582015f6101000a81549060ff021916905550508073ffffffffffffffffffffffffffffffffffffffff167fe9dce8c992623ce791725b21e857e33248d1f190a25b5168313420eebdaae99d60405160405180910390a250565b606060075f8373ffffffffffffffffffffffffffffffffffffffff1673ffffffffffffffffffffffffffffffffffffffff1681526020019081526020015f2080548060200260200160405190810160405280929190818152602001828054801561103457602002820191905f5260205f20905b815481526020019060010190808311611020575b50505050509050919050565b5f803373ffffffffffffffffffffffffffffffffffffffff1673ffffffffffffffffffffffffffffffffffffffff1681526020019081526020015f206005015f9054906101000a900460ff16156110cc576040517f08c379a00000000000000000000000000000000000000000000000000000000081526004016110c390612c67565b60405180910390fd5b5f73ffffffffffffffffffffffffffffffffffffffff166001866040516110f39190612cbf565b90815260200160405180910390205f9054906101000a900473ffffffffffffffffffffffffffffffffffffffff1673ffffffffffffffffffffffffffffffffffffffff1614611177576040517f08c379a000000000000000000000000000000000000000000000000000000000815260040161116e90612d1f565b60405180910390fd5b5f61118182611c3f565b905060025f8281526020019081526020015f205f9054906101000a900460ff16156111e1576040517f08c379a00000000000000000000000000000000000000000000000000000000081526004016111d890612d87565b60405180910390fd5b5f3373ffffffffffffffffffffffffffffffffffffffff1690506040518060c00160405280828152602001888152602001878152602001868152602001858152602001600115158152505f803373ffffffffffffffffffffffffffffffffffffffff1673ffffffffffffffffffffffffffffffffffffffff1681526020019081526020015f205f820151815f015560208201518160010190816112849190612aa0565b50604082015181600201908161129a9190612aa0565b5060608201518160030190816112b09190612aa0565b506080820151816004015560a0820151816005015f6101000a81548160ff021916908315150217905550905050336001886040516112ee9190612cbf565b90815260200160405180910390205f6101000a81548173ffffffffffffffffffffffffffffffffffffffff021916908373ffffffffffffffffffffffffffffffffffffffff160217905550600160025f8481526020019081526020015f205f6101000a81548160ff021916908315150217905550600433908060018154018082558091505060019003905f5260205f20015f9091909190916101000a81548173ffffffffffffffffffffffffffffffffffffffff021916908373ffffffffffffffffffffffffffffffffffffffff1602179055503373ffffffffffffffffffffffffffffffffffffffff167fbc6cd93a5a69dae46517fc4b81c3c705973b0fabb816aae5d0ff7a077c4d5d18828960405161140a929190612da5565b60405180910390a250505050505050565b5f803373ffffffffffffffffffffffffffffffffffffffff1673ffffffffffffffffffffffffffffffffffffffff1681526020019081526020015f206005015f9054906101000a900460ff166114a6576040517f08c379a000000000000000000000000000000000000000000000000000000000815260040161149d90612871565b60405180910390fd5b5f73ffffffffffffffffffffffffffffffffffffffff166001856040516114cd9190612cbf565b90815260200160405180910390205f9054906101000a900473ffffffffffffffffffffffffffffffffffffffff1673ffffffffffffffffffffffffffffffffffffffff16148061158557503373ffffffffffffffffffffffffffffffffffffffff1660018560405161153f9190612cbf565b90815260200160405180910390205f9054906101000a900473ffffffffffffffffffffffffffffffffffffffff1673ffffffffffffffffffffffffffffffffffffffff16145b6115c4576040517f08c379a00000000000000000000000000000000000000000000000000000000081526004016115bb90612e43565b60405180910390fd5b835f803373ffffffffffffffffffffffffffffffffffffffff1673ffffffffffffffffffffffffffffffffffffffff1681526020019081526020015f2060010190816116109190612aa0565b50825f803373ffffffffffffffffffffffffffffffffffffffff1673ffffffffffffffffffffffffffffffffffffffff1681526020019081526020015f20600201908161165d9190612aa0565b50815f803373ffffffffffffffffffffffffffffffffffffffff1673ffffffffffffffffffffffffffffffffffffffff1681526020019081526020015f2060030190816116aa9190612aa0565b50805f803373ffffffffffffffffffffffffffffffffffffffff1673ffffffffffffffffffffffffffffffffffffffff1681526020019081526020015f206004018190555050505050565b5f60608060605f805f8773ffffffffffffffffffffffffffffffffffffffff1673ffffffffffffffffffffffffffffffffffffffff1681526020019081526020015f206005015f9054906101000a900460ff16611787576040517f08c379a000000000000000000000000000000000000000000000000000000000815260040161177e90612871565b60405180910390fd5b5f805f8873ffffffffffffffffffffffffffffffffffffffff1673ffffffffffffffffffffffffffffffffffffffff1681526020019081526020015f206040518060c00160405290815f82015481526020016001820180546117e8906127f7565b80601f0160208091040260200160405190810160405280929190818152602001828054611814906127f7565b801561185f5780601f106118365761010080835404028352916020019161185f565b820191905f5260205f20905b81548152906001019060200180831161184257829003601f168201915b50505050508152602001600282018054611878906127f7565b80601f01602080910402602001604051908101604052809291908181526020018280546118a4906127f7565b80156118ef5780601f106118c6576101008083540402835291602001916118ef565b820191905f5260205f20905b8154815290600101906020018083116118d257829003601f168201915b50505050508152602001600382018054611908906127f7565b80601f0160208091040260200160405190810160405280929190818152602001828054611934906127f7565b801561197f5780601f106119565761010080835404028352916020019161197f565b820191905f5260205f20905b81548152906001019060200180831161196257829003601f168201915b5050505050815260200160048201548152602001600582015f9054906101000a900460ff1615151515815250509050805f01518160200151826040015183606001518460800151955095509550955095505091939590929450565b5f803373ffffffffffffffffffffffffffffffffffffffff1673ffffffffffffffffffffffffffffffffffffffff1681526020019081526020015f206005015f9054906101000a900460ff16611a65576040517f08c379a0000000000000000000000000000000000000000000000000000000008152600401611a5c90612871565b60405180910390fd5b60065f8281526020019081526020015f206006015f9054906101000a900460ff16611ac5576040517f08c379a0000000000000000000000000000000000000000000000000000000008152600401611abc9061271e565b60405180910390fd5b611ace81611c6e565b611b0d576040517f08c379a0000000000000000000000000000000000000000000000000000000008152600401611b0490612ed1565b60405180910390fd5b60065f8281526020019081526020015f205f8082015f9055600182015f6101000a81549073ffffffffffffffffffffffffffffffffffffffff0219169055600282015f611b5a9190611c78565b600382015f611b699190611c78565b600482015f9055600582015f9055600682015f6101000a81549060ff0219169055505050565b60606004805480602002602001604051908101604052809291908181526020018280548015611c1057602002820191905f5260205f20905b815f9054906101000a900473ffffffffffffffffffffffffffffffffffffffff1673ffffffffffffffffffffffffffffffffffffffff1681526020019060010190808311611bc7575b5050505050905090565b60035f9054906101000a900473ffffffffffffffffffffffffffffffffffffffff1681565b5f81604051602001611c519190612cbf565b604051602081830303815290604052805190602001209050919050565b5f60019050919050565b508054611c84906127f7565b5f825580601f10611c955750611cb2565b601f0160209004905f5260205f2090810190611cb19190611d05565b5b50565b6040518060e001604052805f81526020015f73ffffffffffffffffffffffffffffffffffffffff16815260200160608152602001606081526020015f81526020015f81526020015f151581525090565b5b80821115611d1c575f815f905550600101611d06565b5090565b5f82825260208201905092915050565b7f5468697320636f6e747261637420646f6573206e6f74206163636570742070615f8201527f796d656e74730000000000000000000000000000000000000000000000000000602082015250565b5f611d8a602683611d20565b9150611d9582611d30565b604082019050919050565b5f6020820190508181035f830152611db781611d7e565b9050919050565b5f604051905090565b5f80fd5b5f80fd5b5f819050919050565b611de181611dcf565b8114611deb575f80fd5b50565b5f81359050611dfc81611dd8565b92915050565b5f60208284031215611e1757611e16611dc7565b5b5f611e2484828501611dee565b91505092915050565b611e3681611dcf565b82525050565b5f73ffffffffffffffffffffffffffffffffffffffff82169050919050565b5f611e6582611e3c565b9050919050565b611e7581611e5b565b82525050565b5f81519050919050565b5f5b83811015611ea2578082015181840152602081019050611e87565b5f8484015250505050565b5f601f19601f8301169050919050565b5f611ec782611e7b565b611ed18185611d20565b9350611ee1818560208601611e85565b611eea81611ead565b840191505092915050565b5f8115159050919050565b611f0981611ef5565b82525050565b5f60e082019050611f225f83018a611e2d565b611f2f6020830189611e6c565b8181036040830152611f418188611ebd565b90508181036060830152611f558187611ebd565b9050611f646080830186611e2d565b611f7160a0830185611e2d565b611f7e60c0830184611f00565b98975050505050505050565b5f602082019050611f9d5f830184611e2d565b92915050565b5f80fd5b5f80fd5b7f4e487b71000000000000000000000000000000000000000000000000000000005f52604160045260245ffd5b611fe182611ead565b810181811067ffffffffffffffff8211171561200057611fff611fab565b5b80604052505050565b5f612012611dbe565b905061201e8282611fd8565b919050565b5f67ffffffffffffffff82111561203d5761203c611fab565b5b61204682611ead565b9050602081019050919050565b828183375f83830152505050565b5f61207361206e84612023565b612009565b90508281526020810184848401111561208f5761208e611fa7565b5b61209a848285612053565b509392505050565b5f82601f8301126120b6576120b5611fa3565b5b81356120c6848260208601612061565b91505092915050565b5f80604083850312156120e5576120e4611dc7565b5b5f83013567ffffffffffffffff81111561210257612101611dcb565b5b61210e858286016120a2565b925050602083013567ffffffffffffffff81111561212f5761212e611dcb565b5b61213b858286016120a2565b9150509250929050565b61214e81611dcf565b82525050565b61215d81611e5b565b82525050565b5f82825260208201905092915050565b5f61217d82611e7b565b6121878185612163565b9350612197818560208601611e85565b6121a081611ead565b840191505092915050565b6121b481611ef5565b82525050565b5f60e083015f8301516121cf5f860182612145565b5060208301516121e26020860182612154565b50604083015184820360408601526121fa8282612173565b915050606083015184820360608601526122148282612173565b91505060808301516122296080860182612145565b5060a083015161223c60a0860182612145565b5060c083015161224f60c08601826121ab565b508091505092915050565b5f6020820190508181035f83015261227281846121ba565b905092915050565b5f60208201905061228d5f830184611e6c565b92915050565b61229c81611e5b565b81146122a6575f80fd5b50565b5f813590506122b781612293565b92915050565b5f80604083850312156122d3576122d2611dc7565b5b5f6122e0858286016122a9565b92505060206122f185828601611dee565b9150509250929050565b5f60208201905061230e5f830184611f00565b92915050565b5f6020828403121561232957612328611dc7565b5b5f612336848285016122a9565b91505092915050565b5f81519050919050565b5f82825260208201905092915050565b5f819050602082019050919050565b5f6123738383612145565b60208301905092915050565b5f602082019050919050565b5f6123958261233f565b61239f8185612349565b93506123aa83612359565b805f5b838110156123da5781516123c18882612368565b97506123cc8361237f565b9250506001810190506123ad565b5085935050505092915050565b5f6020820190508181035f8301526123ff818461238b565b905092915050565b5f805f805f60a086880312156124205761241f611dc7565b5b5f86013567ffffffffffffffff81111561243d5761243c611dcb565b5b612449888289016120a2565b955050602086013567ffffffffffffffff81111561246a57612469611dcb565b5b612476888289016120a2565b945050604086013567ffffffffffffffff81111561249757612496611dcb565b5b6124a3888289016120a2565b93505060606124b488828901611dee565b925050608086013567ffffffffffffffff8111156124d5576124d4611dcb565b5b6124e1888289016120a2565b9150509295509295909350565b5f805f806080858703121561250657612505611dc7565b5b5f85013567ffffffffffffffff81111561252357612522611dcb565b5b61252f878288016120a2565b945050602085013567ffffffffffffffff8111156125505761254f611dcb565b5b61255c878288016120a2565b935050604085013567ffffffffffffffff81111561257d5761257c611dcb565b5b612589878288016120a2565b925050606061259a87828801611dee565b91505092959194509250565b5f60a0820190506125b95f830188611e2d565b81810360208301526125cb8187611ebd565b905081810360408301526125df8186611ebd565b905081810360608301526125f38185611ebd565b90506126026080830184611e2d565b9695505050505050565b5f81519050919050565b5f82825260208201905092915050565b5f819050602082019050919050565b5f6126408383612154565b60208301905092915050565b5f602082019050919050565b5f6126628261260c565b61266c8185612616565b935061267783612626565b805f5b838110156126a757815161268e8882612635565b97506126998361264c565b92505060018101905061267a565b5085935050505092915050565b5f6020820190508181035f8301526126cc8184612658565b905092915050565b7f506f737420646f6573206e6f74206578697374000000000000000000000000005f82015250565b5f612708601383611d20565b9150612713826126d4565b602082019050919050565b5f6020820190508181035f830152612735816126fc565b9050919050565b7f4f6e6c792074686520617574686f722063616e2064656c6574652074686973205f8201527f706f737400000000000000000000000000000000000000000000000000000000602082015250565b5f612796602483611d20565b91506127a18261273c565b604082019050919050565b5f6020820190508181035f8301526127c38161278a565b9050919050565b7f4e487b71000000000000000000000000000000000000000000000000000000005f52602260045260245ffd5b5f600282049050600182168061280e57607f821691505b602082108103612821576128206127ca565b5b50919050565b7f55736572206e6f742072656769737465726564000000000000000000000000005f82015250565b5f61285b601383611d20565b915061286682612827565b602082019050919050565b5f6020820190508181035f8301526128888161284f565b9050919050565b7f4e487b71000000000000000000000000000000000000000000000000000000005f52601160045260245ffd5b5f6128c682611dcf565b91507fffffffffffffffffffffffffffffffffffffffffffffffffffffffffffffffff82036128f8576128f761288f565b5b600182019050919050565b5f819050815f5260205f209050919050565b5f6020601f8301049050919050565b5f82821b905092915050565b5f6008830261295f7fffffffffffffffffffffffffffffffffffffffffffffffffffffffffffffffff82612924565b6129698683612924565b95508019841693508086168417925050509392505050565b5f819050919050565b5f6129a461299f61299a84611dcf565b612981565b611dcf565b9050919050565b5f819050919050565b6129bd8361298a565b6129d16129c9826129ab565b848454612930565b825550505050565b5f90565b6129e56129d9565b6129f08184846129b4565b505050565b5b81811015612a1357612a085f826129dd565b6001810190506129f6565b5050565b601f821115612a5857612a2981612903565b612a3284612915565b81016020851015612a41578190505b612a55612a4d85612915565b8301826129f5565b50505b505050565b5f82821c905092915050565b5f612a785f1984600802612a5d565b1980831691505092915050565b5f612a908383612a69565b9150826002028217905092915050565b612aa982611e7b565b67ffffffffffffffff811115612ac257612ac1611fab565b5b612acc82546127f7565b612ad7828285612a17565b5f60209050601f831160018114612b08575f8415612af6578287015190505b612b008582612a85565b865550612b67565b601f198416612b1686612903565b5f5b82811015612b3d57848901518255600182019150602085019450602081019050612b18565b86831015612b5a5784890151612b56601f891682612a69565b8355505b6001600288020188555050505b505050505050565b5f6020820190508181035f830152612b878184611ebd565b905092915050565b7f4f6e6c792061646d696e2063616e20706572666f726d207468697320616374695f8201527f6f6e000000000000000000000000000000000000000000000000000000000000602082015250565b5f612be9602283611d20565b9150612bf482612b8f565b604082019050919050565b5f6020820190508181035f830152612c1681612bdd565b9050919050565b7f5573657220697320616c726561647920726567697374657265640000000000005f82015250565b5f612c51601a83611d20565b9150612c5c82612c1d565b602082019050919050565b5f6020820190508181035f830152612c7e81612c45565b9050919050565b5f81905092915050565b5f612c9982611e7b565b612ca38185612c85565b9350612cb3818560208601611e85565b80840191505092915050565b5f612cca8284612c8f565b915081905092915050565b7f557365726e616d6520616c72656164792074616b656e000000000000000000005f82015250565b5f612d09601683611d20565b9150612d1482612cd5565b602082019050919050565b5f6020820190508181035f830152612d3681612cfd565b9050919050565b7f456d61696c20616c7265616479207573656400000000000000000000000000005f82015250565b5f612d71601283611d20565b9150612d7c82612d3d565b602082019050919050565b5f6020820190508181035f830152612d9e81612d65565b9050919050565b5f604082019050612db85f830185611e2d565b8181036020830152612dca8184611ebd565b90509392505050565b7f557365726e616d6520616c72656164792074616b656e20627920616e6f7468655f8201527f7220757365720000000000000000000000000000000000000000000000000000602082015250565b5f612e2d602683611d20565b9150612e3882612dd3565b604082019050919050565b5f6020820190508181035f830152612e5a81612e21565b9050919050565b7f4e6f7420617574686f72697a656420746f2064656c6574652074686520706f735f8201527f7400000000000000000000000000000000000000000000000000000000000000602082015250565b5f612ebb602183611d20565b9150612ec682612e61565b604082019050919050565b5f6020820190508181035f830152612ee881612eaf565b905091905056fea2646970667358221220f89d872d0aa51acfbbdbda2dbfb4612dbf622a8cfaa9cedb268f2b7e9f145f4b64736f6c63430008150033",
  "immutableReferences": {},
  "source": "// SPDX-License-Identifier: MIT\r\npragma solidity ^0.8.21;\r\n\r\nimport \"./Registration.sol\"; // Importing Registration contract\r\nimport \"./Voting.sol\"; // Importing Voting contract for community-based deletions\r\n\r\ncontract Create is Registration{\r\n\r\n    Registration registrationContract; // Instance of the registration contract\r\n\r\n    struct Post {\r\n        uint256 postID;\r\n        address author;           // User address\r\n        string content;          // Post content\r\n        string photo;            // Photo URL or IPFS hash\r\n        uint256 likes;           // Count of likes\r\n        uint256 timestamp;       // Time of creation\r\n        bool exists;             // Check if post exists\r\n    }\r\n\r\n    mapping(uint256 => Post) public posts;  // Mapping of postID to Post\r\n    mapping(address => uint256[]) public userPosts; // User's posts\r\n    uint256 public postCount = 0; // To track the number of posts\r\n\r\n    event PostCreated(uint256 indexed postID, address indexed author, string content);\r\n    event PostLiked(uint256 indexed postID, address indexed user);\r\n    event PostDeleted(uint256 indexed postID);\r\n\r\n    constructor(address _registrationContract) {\r\n        registrationContract = Registration(0xDF6D54c5bB152A0bb171eCA423EA2Eb8627126Fb);\r\n    }\r\n\r\n    // modifier onlyRegistered() {\r\n    //     require(admin != msg.sender, \"You must be registered to create content\");\r\n    //     _;\r\n    // }\r\n\r\n    // Function to create a post with optional photo\r\n    function createPost(string memory _content, string memory _photo) public onlyRegistered {\r\n        postCount++;\r\n        posts[postCount] = Post(postCount, msg.sender, _content, _photo, 0, block.timestamp, true);\r\n        userPosts[msg.sender].push(postCount);\r\n\r\n        emit PostCreated(postCount, msg.sender, _content);\r\n    }\r\n\r\n    // Function to like a post\r\n    function likePost(uint256 _postID) public onlyRegistered {\r\n        require(posts[_postID].exists, \"Post does not exist\");\r\n        posts[_postID].likes++;\r\n\r\n        emit PostLiked(_postID, msg.sender);\r\n    }\r\n\r\n    // Function to delete a post by the author\r\n    function deletePost(uint256 _postID) public {\r\n        require(posts[_postID].exists, \"Post does not exist\");\r\n        require(posts[_postID].author == msg.sender, \"Only the author can delete this post\");\r\n\r\n        delete posts[_postID];\r\n        emit PostDeleted(_postID);\r\n    }\r\n\r\n    // Function to create a proposal for community deletion of a post\r\n    function createDeletionProposal(uint256 _postID) public onlyRegistered {\r\n        require(posts[_postID].exists, \"Post does not exist\");\r\n            require(isCommunityApproved(_postID), \"Not authorized to delete the post\");\r\n            delete posts[_postID];\r\n    }\r\n\r\n    function isCommunityApproved(uint256 _postID) internal view returns (bool) {\r\n    // Implement your logic for community approval\r\n    return true; // Placeholder - replace with actual logic\r\n}\r\n\r\n// Function to get post details by postID\r\n    function getPost(uint256 _postID) public view returns (Post memory) {\r\n    require(posts[_postID].exists, \"Post does not exist\");\r\n    return posts[_postID];\r\n    }\r\n\r\n// Function to get posts created by a specific user\r\n    function getUserPosts(address _user) public view returns (uint256[] memory) {\r\n    return userPosts[_user];\r\n    }\r\n\r\n// Function to get the total number of posts\r\n    function getTotalPosts() public view returns (uint256) {\r\n    return postCount;\r\n    }\r\n\r\n}\r\n",
  "sourcePath": "/mnt/c/Users/dell/Documents/SocialX/contracts/create.sol",
  "compiler": {
    "name": "solc",
    "version": "0.8.21+commit.d9974bed.Emscripten.clang"
  },
  "schemaVersion": "3.4.16",
  "updatedAt": "2024-09-27T08:25:41.994Z",
  "devdoc": {
    "kind": "dev",
    "methods": {},
    "version": 1
  },
  "userdoc": {
    "kind": "user",
    "methods": {},
    "version": 1
  }
}