{
  "contractName": "PostContract",
  "abi": [
    {
      "anonymous": false,
      "inputs": [
        {
          "indexed": false,
          "internalType": "uint256",
          "name": "id",
          "type": "uint256"
        },
        {
          "indexed": false,
          "internalType": "string",
          "name": "content",
          "type": "string"
        },
        {
          "indexed": false,
          "internalType": "string",
          "name": "ipfsHash",
          "type": "string"
        },
        {
          "indexed": false,
          "internalType": "address",
          "name": "author",
          "type": "address"
        }
      ],
      "name": "PostCreated",
      "type": "event"
    },
    {
      "inputs": [],
      "name": "postCount",
      "outputs": [
        {
          "internalType": "uint256",
          "name": "",
          "type": "uint256"
        }
      ],
      "stateMutability": "view",
      "type": "function"
    },
    {
      "inputs": [
        {
          "internalType": "uint256",
          "name": "",
          "type": "uint256"
        }
      ],
      "name": "posts",
      "outputs": [
        {
          "internalType": "uint256",
          "name": "id",
          "type": "uint256"
        },
        {
          "internalType": "string",
          "name": "content",
          "type": "string"
        },
        {
          "internalType": "string",
          "name": "ipfsHash",
          "type": "string"
        },
        {
          "internalType": "address",
          "name": "author",
          "type": "address"
        }
      ],
      "stateMutability": "view",
      "type": "function"
    },
    {
      "inputs": [
        {
          "internalType": "string",
          "name": "_content",
          "type": "string"
        },
        {
          "internalType": "string",
          "name": "_ipfsHash",
          "type": "string"
        }
      ],
      "name": "createPost",
      "outputs": [],
      "stateMutability": "nonpayable",
      "type": "function"
    },
    {
      "inputs": [],
      "name": "getPosts",
      "outputs": [
        {
          "components": [
            {
              "internalType": "uint256",
              "name": "id",
              "type": "uint256"
            },
            {
              "internalType": "string",
              "name": "content",
              "type": "string"
            },
            {
              "internalType": "string",
              "name": "ipfsHash",
              "type": "string"
            },
            {
              "internalType": "address",
              "name": "author",
              "type": "address"
            }
          ],
          "internalType": "struct PostContract.Post[]",
          "name": "",
          "type": "tuple[]"
        }
      ],
      "stateMutability": "view",
      "type": "function"
    },
    {
      "inputs": [
        {
          "internalType": "address",
          "name": "_author",
          "type": "address"
        }
      ],
      "name": "getPostsByAuthor",
      "outputs": [
        {
          "components": [
            {
              "internalType": "uint256",
              "name": "id",
              "type": "uint256"
            },
            {
              "internalType": "string",
              "name": "content",
              "type": "string"
            },
            {
              "internalType": "string",
              "name": "ipfsHash",
              "type": "string"
            },
            {
              "internalType": "address",
              "name": "author",
              "type": "address"
            }
          ],
          "internalType": "struct PostContract.Post[]",
          "name": "",
          "type": "tuple[]"
        }
      ],
      "stateMutability": "view",
      "type": "function"
    }
  ],
  "bytecode": "0x608060405234801561000f575f80fd5b506112308061001d5f395ff3fe608060405234801561000f575f80fd5b5060043610610055575f3560e01c80630b1e7f831461005957806317906c2e1461008c578063392338f5146100aa57806341f3004a146100c6578063f4ab2499146100e4575b5f80fd5b610073600480360381019061006e9190610984565b610114565b6040516100839493929190610a87565b60405180910390f35b610094610279565b6040516100a19190610ad8565b60405180910390f35b6100c460048036038101906100bf9190610c1d565b61027f565b005b6100ce6103b5565b6040516100db9190610e1b565b60405180910390f35b6100fe60048036038101906100f99190610e65565b61058e565b60405161010b9190610e1b565b60405180910390f35b5f8181548110610122575f80fd5b905f5260205f2090600402015f91509050805f01549080600101805461014790610ebd565b80601f016020809104026020016040519081016040528092919081815260200182805461017390610ebd565b80156101be5780601f10610195576101008083540402835291602001916101be565b820191905f5260205f20905b8154815290600101906020018083116101a157829003601f168201915b5050505050908060020180546101d390610ebd565b80601f01602080910402602001604051908101604052809291908181526020018280546101ff90610ebd565b801561024a5780601f106102215761010080835404028352916020019161024a565b820191905f5260205f20905b81548152906001019060200180831161022d57829003601f168201915b505050505090806003015f9054906101000a900473ffffffffffffffffffffffffffffffffffffffff16905084565b60015481565b60015f81548092919061029190610f1a565b91905055505f604051806080016040528060015481526020018481526020018381526020013373ffffffffffffffffffffffffffffffffffffffff16815250908060018154018082558091505060019003905f5260205f2090600402015f909190919091505f820151815f0155602082015181600101908161031391906110fe565b50604082015181600201908161032991906110fe565b506060820151816003015f6101000a81548173ffffffffffffffffffffffffffffffffffffffff021916908373ffffffffffffffffffffffffffffffffffffffff16021790555050507fb80f87406b72baa5a47a424e6c8f284ee91e4fef063c94c62ab1ea33a27a858b6001548383336040516103a99493929190610a87565b60405180910390a15050565b60605f805480602002602001604051908101604052809291908181526020015f905b82821015610585578382905f5260205f2090600402016040518060800160405290815f820154815260200160018201805461041190610ebd565b80601f016020809104026020016040519081016040528092919081815260200182805461043d90610ebd565b80156104885780601f1061045f57610100808354040283529160200191610488565b820191905f5260205f20905b81548152906001019060200180831161046b57829003601f168201915b505050505081526020016002820180546104a190610ebd565b80601f01602080910402602001604051908101604052809291908181526020018280546104cd90610ebd565b80156105185780601f106104ef57610100808354040283529160200191610518565b820191905f5260205f20905b8154815290600101906020018083116104fb57829003601f168201915b50505050508152602001600382015f9054906101000a900473ffffffffffffffffffffffffffffffffffffffff1673ffffffffffffffffffffffffffffffffffffffff1673ffffffffffffffffffffffffffffffffffffffff1681525050815260200190600101906103d7565b50505050905090565b60605f805b5f80549050811015610635578373ffffffffffffffffffffffffffffffffffffffff165f82815481106105c9576105c86111cd565b5b905f5260205f2090600402016003015f9054906101000a900473ffffffffffffffffffffffffffffffffffffffff1673ffffffffffffffffffffffffffffffffffffffff160361062257818061061e90610f1a565b9250505b808061062d90610f1a565b915050610593565b505f8167ffffffffffffffff81111561065157610650610af9565b5b60405190808252806020026020018201604052801561068a57816020015b610677610904565b81526020019060019003908161066f5790505b5090505f805b5f805490508110156108f8578573ffffffffffffffffffffffffffffffffffffffff165f82815481106106c6576106c56111cd565b5b905f5260205f2090600402016003015f9054906101000a900473ffffffffffffffffffffffffffffffffffffffff1673ffffffffffffffffffffffffffffffffffffffff16036108e5575f8181548110610723576107226111cd565b5b905f5260205f2090600402016040518060800160405290815f820154815260200160018201805461075390610ebd565b80601f016020809104026020016040519081016040528092919081815260200182805461077f90610ebd565b80156107ca5780601f106107a1576101008083540402835291602001916107ca565b820191905f5260205f20905b8154815290600101906020018083116107ad57829003601f168201915b505050505081526020016002820180546107e390610ebd565b80601f016020809104026020016040519081016040528092919081815260200182805461080f90610ebd565b801561085a5780601f106108315761010080835404028352916020019161085a565b820191905f5260205f20905b81548152906001019060200180831161083d57829003601f168201915b50505050508152602001600382015f9054906101000a900473ffffffffffffffffffffffffffffffffffffffff1673ffffffffffffffffffffffffffffffffffffffff1673ffffffffffffffffffffffffffffffffffffffff16815250508383815181106108cb576108ca6111cd565b5b602002602001018190525081806108e190610f1a565b9250505b80806108f090610f1a565b915050610690565b50819350505050919050565b60405180608001604052805f815260200160608152602001606081526020015f73ffffffffffffffffffffffffffffffffffffffff1681525090565b5f604051905090565b5f80fd5b5f80fd5b5f819050919050565b61096381610951565b811461096d575f80fd5b50565b5f8135905061097e8161095a565b92915050565b5f6020828403121561099957610998610949565b5b5f6109a684828501610970565b91505092915050565b6109b881610951565b82525050565b5f81519050919050565b5f82825260208201905092915050565b5f5b838110156109f55780820151818401526020810190506109da565b5f8484015250505050565b5f601f19601f8301169050919050565b5f610a1a826109be565b610a2481856109c8565b9350610a348185602086016109d8565b610a3d81610a00565b840191505092915050565b5f73ffffffffffffffffffffffffffffffffffffffff82169050919050565b5f610a7182610a48565b9050919050565b610a8181610a67565b82525050565b5f608082019050610a9a5f8301876109af565b8181036020830152610aac8186610a10565b90508181036040830152610ac08185610a10565b9050610acf6060830184610a78565b95945050505050565b5f602082019050610aeb5f8301846109af565b92915050565b5f80fd5b5f80fd5b7f4e487b71000000000000000000000000000000000000000000000000000000005f52604160045260245ffd5b610b2f82610a00565b810181811067ffffffffffffffff82111715610b4e57610b4d610af9565b5b80604052505050565b5f610b60610940565b9050610b6c8282610b26565b919050565b5f67ffffffffffffffff821115610b8b57610b8a610af9565b5b610b9482610a00565b9050602081019050919050565b828183375f83830152505050565b5f610bc1610bbc84610b71565b610b57565b905082815260208101848484011115610bdd57610bdc610af5565b5b610be8848285610ba1565b509392505050565b5f82601f830112610c0457610c03610af1565b5b8135610c14848260208601610baf565b91505092915050565b5f8060408385031215610c3357610c32610949565b5b5f83013567ffffffffffffffff811115610c5057610c4f61094d565b5b610c5c85828601610bf0565b925050602083013567ffffffffffffffff811115610c7d57610c7c61094d565b5b610c8985828601610bf0565b9150509250929050565b5f81519050919050565b5f82825260208201905092915050565b5f819050602082019050919050565b610cc581610951565b82525050565b5f82825260208201905092915050565b5f610ce5826109be565b610cef8185610ccb565b9350610cff8185602086016109d8565b610d0881610a00565b840191505092915050565b610d1c81610a67565b82525050565b5f608083015f830151610d375f860182610cbc565b5060208301518482036020860152610d4f8282610cdb565b91505060408301518482036040860152610d698282610cdb565b9150506060830151610d7e6060860182610d13565b508091505092915050565b5f610d948383610d22565b905092915050565b5f602082019050919050565b5f610db282610c93565b610dbc8185610c9d565b935083602082028501610dce85610cad565b805f5b85811015610e095784840389528151610dea8582610d89565b9450610df583610d9c565b925060208a01995050600181019050610dd1565b50829750879550505050505092915050565b5f6020820190508181035f830152610e338184610da8565b905092915050565b610e4481610a67565b8114610e4e575f80fd5b50565b5f81359050610e5f81610e3b565b92915050565b5f60208284031215610e7a57610e79610949565b5b5f610e8784828501610e51565b91505092915050565b7f4e487b71000000000000000000000000000000000000000000000000000000005f52602260045260245ffd5b5f6002820490506001821680610ed457607f821691505b602082108103610ee757610ee6610e90565b5b50919050565b7f4e487b71000000000000000000000000000000000000000000000000000000005f52601160045260245ffd5b5f610f2482610951565b91507fffffffffffffffffffffffffffffffffffffffffffffffffffffffffffffffff8203610f5657610f55610eed565b5b600182019050919050565b5f819050815f5260205f209050919050565b5f6020601f8301049050919050565b5f82821b905092915050565b5f60088302610fbd7fffffffffffffffffffffffffffffffffffffffffffffffffffffffffffffffff82610f82565b610fc78683610f82565b95508019841693508086168417925050509392505050565b5f819050919050565b5f611002610ffd610ff884610951565b610fdf565b610951565b9050919050565b5f819050919050565b61101b83610fe8565b61102f61102782611009565b848454610f8e565b825550505050565b5f90565b611043611037565b61104e818484611012565b505050565b5b81811015611071576110665f8261103b565b600181019050611054565b5050565b601f8211156110b65761108781610f61565b61109084610f73565b8101602085101561109f578190505b6110b36110ab85610f73565b830182611053565b50505b505050565b5f82821c905092915050565b5f6110d65f19846008026110bb565b1980831691505092915050565b5f6110ee83836110c7565b9150826002028217905092915050565b611107826109be565b67ffffffffffffffff8111156111205761111f610af9565b5b61112a8254610ebd565b611135828285611075565b5f60209050601f831160018114611166575f8415611154578287015190505b61115e85826110e3565b8655506111c5565b601f19841661117486610f61565b5f5b8281101561119b57848901518255600182019150602085019450602081019050611176565b868310156111b857848901516111b4601f8916826110c7565b8355505b6001600288020188555050505b505050505050565b7f4e487b71000000000000000000000000000000000000000000000000000000005f52603260045260245ffdfea2646970667358221220e83825c2c7392d5a4b267597e0019ad190d1319b71796dac77bd4f0ec296daad64736f6c63430008150033",
  "immutableReferences": {},
  "source": "// SPDX-License-Identifier: MIT\r\npragma solidity ^0.8.21;\r\n\r\ncontract PostContract {\r\n    struct Post {\r\n        uint id;\r\n        string content;\r\n        string ipfsHash;\r\n        address author;\r\n    }\r\n\r\n    Post[] public posts;\r\n    uint public postCount;\r\n\r\n    event PostCreated(uint id, string content, string ipfsHash, address author);\r\n\r\n    function createPost(string memory _content, string memory _ipfsHash) public {\r\n        postCount++;\r\n        posts.push(Post(postCount, _content, _ipfsHash, msg.sender));\r\n        emit PostCreated(postCount, _content, _ipfsHash, msg.sender);\r\n    }\r\n\r\n    function getPosts() public view returns (Post[] memory) {\r\n        return posts;\r\n    }\r\n\r\n    function getPostsByAuthor(address _author) public view returns (Post[] memory) {\r\n        uint count = 0;\r\n        for (uint i = 0; i < posts.length; i++) {\r\n            if (posts[i].author == _author) {\r\n                count++;\r\n            }\r\n        }\r\n\r\n        Post[] memory result = new Post[](count);\r\n        uint index = 0;\r\n        for (uint i = 0; i < posts.length; i++) {\r\n            if (posts[i].author == _author) {\r\n                result[index] = posts[i];\r\n                index++;\r\n            }\r\n        }\r\n        return result;\r\n    }\r\n}\r\n",
  "sourcePath": "/mnt/c/Users/dell/Documents/SocialX/contracts/PostContract.sol",
  "compiler": {
    "name": "solc",
    "version": "0.8.21+commit.d9974bed.Emscripten.clang"
  },
  "schemaVersion": "3.4.16",
  "updatedAt": "2024-09-27T08:00:09.678Z",
  "devdoc": {
    "kind": "dev",
    "methods": {},
    "version": 1
  },
  "userdoc": {
    "kind": "user",
    "methods": {},
    "version": 1
  }
}