{
  "contractName": "Registration",
  "abi": [
    {
      "inputs": [],
      "stateMutability": "nonpayable",
      "type": "constructor"
    },
    {
      "anonymous": false,
      "inputs": [
        {
          "indexed": true,
          "internalType": "address",
          "name": "userAddress",
          "type": "address"
        },
        {
          "indexed": false,
          "internalType": "uint256",
          "name": "uniqueID",
          "type": "uint256"
        },
        {
          "indexed": false,
          "internalType": "string",
          "name": "username",
          "type": "string"
        }
      ],
      "name": "UserRegistered",
      "type": "event"
    },
    {
      "anonymous": false,
      "inputs": [
        {
          "indexed": true,
          "internalType": "address",
          "name": "userAddress",
          "type": "address"
        }
      ],
      "name": "UserRemoved",
      "type": "event"
    },
    {
      "anonymous": false,
      "inputs": [
        {
          "indexed": true,
          "internalType": "address",
          "name": "userAddress",
          "type": "address"
        },
        {
          "indexed": false,
          "internalType": "string",
          "name": "username",
          "type": "string"
        }
      ],
      "name": "UserUpdated",
      "type": "event"
    },
    {
      "stateMutability": "nonpayable",
      "type": "fallback"
    },
    {
      "inputs": [],
      "name": "admin",
      "outputs": [
        {
          "internalType": "address",
          "name": "",
          "type": "address"
        }
      ],
      "stateMutability": "view",
      "type": "function",
      "constant": true
    },
    {
      "inputs": [
        {
          "internalType": "uint256",
          "name": "",
          "type": "uint256"
        }
      ],
      "name": "userAddresses",
      "outputs": [
        {
          "internalType": "address",
          "name": "",
          "type": "address"
        }
      ],
      "stateMutability": "view",
      "type": "function",
      "constant": true
    },
    {
      "inputs": [],
      "name": "isUserRegistered",
      "outputs": [
        {
          "internalType": "bool",
          "name": "",
          "type": "bool"
        }
      ],
      "stateMutability": "view",
      "type": "function",
      "constant": true
    },
    {
      "inputs": [
        {
          "internalType": "string",
          "name": "_username",
          "type": "string"
        },
        {
          "internalType": "string",
          "name": "_firstName",
          "type": "string"
        },
        {
          "internalType": "string",
          "name": "_lastName",
          "type": "string"
        },
        {
          "internalType": "uint256",
          "name": "_age",
          "type": "uint256"
        },
        {
          "internalType": "string",
          "name": "_email",
          "type": "string"
        },
        {
          "internalType": "string",
          "name": "newPassword",
          "type": "string"
        },
        {
          "internalType": "string",
          "name": "confirmPassword",
          "type": "string"
        }
      ],
      "name": "registerUser",
      "outputs": [],
      "stateMutability": "nonpayable",
      "type": "function"
    },
    {
      "inputs": [
        {
          "internalType": "string",
          "name": "_username",
          "type": "string"
        },
        {
          "internalType": "string",
          "name": "_firstName",
          "type": "string"
        },
        {
          "internalType": "string",
          "name": "_lastName",
          "type": "string"
        },
        {
          "internalType": "uint256",
          "name": "_age",
          "type": "uint256"
        },
        {
          "internalType": "string",
          "name": "newPassword",
          "type": "string"
        },
        {
          "internalType": "string",
          "name": "confirmPassword",
          "type": "string"
        }
      ],
      "name": "updateUser",
      "outputs": [],
      "stateMutability": "nonpayable",
      "type": "function"
    },
    {
      "inputs": [
        {
          "internalType": "address",
          "name": "userAddress",
          "type": "address"
        }
      ],
      "name": "removeUser",
      "outputs": [],
      "stateMutability": "nonpayable",
      "type": "function"
    },
    {
      "inputs": [
        {
          "internalType": "address",
          "name": "userAddress",
          "type": "address"
        }
      ],
      "name": "getUserDetails",
      "outputs": [
        {
          "internalType": "uint256",
          "name": "uniqueID",
          "type": "uint256"
        },
        {
          "internalType": "string",
          "name": "username",
          "type": "string"
        },
        {
          "internalType": "string",
          "name": "firstName",
          "type": "string"
        },
        {
          "internalType": "string",
          "name": "lastName",
          "type": "string"
        },
        {
          "internalType": "uint256",
          "name": "age",
          "type": "uint256"
        }
      ],
      "stateMutability": "view",
      "type": "function",
      "constant": true
    },
    {
      "inputs": [
        {
          "internalType": "string",
          "name": "_username",
          "type": "string"
        },
        {
          "internalType": "string",
          "name": "password",
          "type": "string"
        }
      ],
      "name": "login",
      "outputs": [
        {
          "internalType": "bool",
          "name": "",
          "type": "bool"
        }
      ],
      "stateMutability": "view",
      "type": "function",
      "constant": true
    }
  ],
  "bytecode": "0x608060405234801561000f575f80fd5b503360035f6101000a81548173ffffffffffffffffffffffffffffffffffffffff021916908373ffffffffffffffffffffffffffffffffffffffff16021790555061206d8061005d5f395ff3fe608060405234801561000f575f80fd5b506004361061008a575f3560e01c8063a7b6bbfe11610059578063a7b6bbfe14610160578063cc3d967b1461017c578063de745d67146101b0578063f851a440146101cc5761008b565b8063502c9bd5146100c657806358467dbc146100f6578063873138f31461012657806398575188146101445761008b565b5b6040517f08c379a00000000000000000000000000000000000000000000000000000000081526004016100bd90611284565b60405180910390fd5b6100e060048036038101906100db91906112e6565b6101ea565b6040516100ed9190611350565b60405180910390f35b610110600480360381019061010b91906114a5565b610225565b60405161011d9190611535565b60405180910390f35b61012e610369565b60405161013b9190611535565b60405180910390f35b61015e60048036038101906101599190611578565b6103bb565b005b61017a600480360381019061017591906115a3565b6105ae565b005b61019660048036038101906101919190611578565b610a36565b6040516101a7959493929190611761565b60405180910390f35b6101ca60048036038101906101c591906117c7565b610d25565b005b6101d4611129565b6040516101e19190611350565b60405180910390f35b600481815481106101f9575f80fd5b905f5260205f20015f915054906101000a900473ffffffffffffffffffffffffffffffffffffffff1681565b5f806001846040516102379190611916565b90815260200160405180910390205f9054906101000a900473ffffffffffffffffffffffffffffffffffffffff1690505f73ffffffffffffffffffffffffffffffffffffffff168173ffffffffffffffffffffffffffffffffffffffff16036102d5576040517f08c379a00000000000000000000000000000000000000000000000000000000081526004016102cc90611976565b60405180910390fd5b6102de8361114e565b5f808373ffffffffffffffffffffffffffffffffffffffff1673ffffffffffffffffffffffffffffffffffffffff1681526020019081526020015f20600601541461035e576040517f08c379a0000000000000000000000000000000000000000000000000000000008152600401610355906119de565b60405180910390fd5b600191505092915050565b5f805f3373ffffffffffffffffffffffffffffffffffffffff1673ffffffffffffffffffffffffffffffffffffffff1681526020019081526020015f206005015f9054906101000a900460ff16905090565b60035f9054906101000a900473ffffffffffffffffffffffffffffffffffffffff1673ffffffffffffffffffffffffffffffffffffffff163373ffffffffffffffffffffffffffffffffffffffff161461044a576040517f08c379a000000000000000000000000000000000000000000000000000000000815260040161044190611a6c565b60405180910390fd5b5f808273ffffffffffffffffffffffffffffffffffffffff1673ffffffffffffffffffffffffffffffffffffffff1681526020019081526020015f206005015f9054906101000a900460ff166104d5576040517f08c379a00000000000000000000000000000000000000000000000000000000081526004016104cc90611ad4565b60405180910390fd5b5f808273ffffffffffffffffffffffffffffffffffffffff1673ffffffffffffffffffffffffffffffffffffffff1681526020019081526020015f205f8082015f9055600182015f61052791906111ac565b600282015f61053691906111ac565b600382015f61054591906111ac565b600482015f9055600582015f6101000a81549060ff0219169055600682015f905550508073ffffffffffffffffffffffffffffffffffffffff167fe9dce8c992623ce791725b21e857e33248d1f190a25b5168313420eebdaae99d60405160405180910390a250565b5f803373ffffffffffffffffffffffffffffffffffffffff1673ffffffffffffffffffffffffffffffffffffffff1681526020019081526020015f206005015f9054906101000a900460ff161561063a576040517f08c379a000000000000000000000000000000000000000000000000000000000815260040161063190611b3c565b60405180910390fd5b5f73ffffffffffffffffffffffffffffffffffffffff166001886040516106619190611916565b90815260200160405180910390205f9054906101000a900473ffffffffffffffffffffffffffffffffffffffff1673ffffffffffffffffffffffffffffffffffffffff16146106e5576040517f08c379a00000000000000000000000000000000000000000000000000000000081526004016106dc90611ba4565b60405180910390fd5b806040516020016106f69190611916565b604051602081830303815290604052805190602001208260405160200161071d9190611916565b6040516020818303038152906040528051906020012014610773576040517f08c379a000000000000000000000000000000000000000000000000000000000815260040161076a90611c0c565b60405180910390fd5b5f61077d8461117d565b905060025f8281526020019081526020015f205f9054906101000a900460ff16156107dd576040517f08c379a00000000000000000000000000000000000000000000000000000000081526004016107d490611c74565b60405180910390fd5b5f3373ffffffffffffffffffffffffffffffffffffffff1690505f6108018561114e565b90506040518060e001604052808381526020018b81526020018a8152602001898152602001888152602001600115158152602001828152505f803373ffffffffffffffffffffffffffffffffffffffff1673ffffffffffffffffffffffffffffffffffffffff1681526020019081526020015f205f820151815f015560208201518160010190816108929190611e8c565b5060408201518160020190816108a89190611e8c565b5060608201518160030190816108be9190611e8c565b506080820151816004015560a0820151816005015f6101000a81548160ff02191690831515021790555060c082015181600601559050503360018b6040516109069190611916565b90815260200160405180910390205f6101000a81548173ffffffffffffffffffffffffffffffffffffffff021916908373ffffffffffffffffffffffffffffffffffffffff160217905550600160025f8581526020019081526020015f205f6101000a81548160ff021916908315150217905550600433908060018154018082558091505060019003905f5260205f20015f9091909190916101000a81548173ffffffffffffffffffffffffffffffffffffffff021916908373ffffffffffffffffffffffffffffffffffffffff1602179055503373ffffffffffffffffffffffffffffffffffffffff167fbc6cd93a5a69dae46517fc4b81c3c705973b0fabb816aae5d0ff7a077c4d5d18838c604051610a22929190611f5b565b60405180910390a250505050505050505050565b5f60608060605f805f8773ffffffffffffffffffffffffffffffffffffffff1673ffffffffffffffffffffffffffffffffffffffff1681526020019081526020015f206005015f9054906101000a900460ff16610ac8576040517f08c379a0000000000000000000000000000000000000000000000000000000008152600401610abf90611ad4565b60405180910390fd5b5f805f8873ffffffffffffffffffffffffffffffffffffffff1673ffffffffffffffffffffffffffffffffffffffff1681526020019081526020015f206040518060e00160405290815f8201548152602001600182018054610b2990611cbf565b80601f0160208091040260200160405190810160405280929190818152602001828054610b5590611cbf565b8015610ba05780601f10610b7757610100808354040283529160200191610ba0565b820191905f5260205f20905b815481529060010190602001808311610b8357829003601f168201915b50505050508152602001600282018054610bb990611cbf565b80601f0160208091040260200160405190810160405280929190818152602001828054610be590611cbf565b8015610c305780601f10610c0757610100808354040283529160200191610c30565b820191905f5260205f20905b815481529060010190602001808311610c1357829003601f168201915b50505050508152602001600382018054610c4990611cbf565b80601f0160208091040260200160405190810160405280929190818152602001828054610c7590611cbf565b8015610cc05780601f10610c9757610100808354040283529160200191610cc0565b820191905f5260205f20905b815481529060010190602001808311610ca357829003601f168201915b5050505050815260200160048201548152602001600582015f9054906101000a900460ff161515151581526020016006820154815250509050805f01518160200151826040015183606001518460800151955095509550955095505091939590929450565b5f803373ffffffffffffffffffffffffffffffffffffffff1673ffffffffffffffffffffffffffffffffffffffff1681526020019081526020015f206005015f9054906101000a900460ff16610db0576040517f08c379a0000000000000000000000000000000000000000000000000000000008152600401610da790611ad4565b60405180910390fd5b5f73ffffffffffffffffffffffffffffffffffffffff16600187604051610dd79190611916565b90815260200160405180910390205f9054906101000a900473ffffffffffffffffffffffffffffffffffffffff1673ffffffffffffffffffffffffffffffffffffffff161480610e8f57503373ffffffffffffffffffffffffffffffffffffffff16600187604051610e499190611916565b90815260200160405180910390205f9054906101000a900473ffffffffffffffffffffffffffffffffffffffff1673ffffffffffffffffffffffffffffffffffffffff16145b610ece576040517f08c379a0000000000000000000000000000000000000000000000000000000008152600401610ec590611ff9565b60405180910390fd5b80604051602001610edf9190611916565b6040516020818303038152906040528051906020012082604051602001610f069190611916565b6040516020818303038152906040528051906020012014610f5c576040517f08c379a0000000000000000000000000000000000000000000000000000000008152600401610f5390611c0c565b60405180910390fd5b855f803373ffffffffffffffffffffffffffffffffffffffff1673ffffffffffffffffffffffffffffffffffffffff1681526020019081526020015f206001019081610fa89190611e8c565b50845f803373ffffffffffffffffffffffffffffffffffffffff1673ffffffffffffffffffffffffffffffffffffffff1681526020019081526020015f206002019081610ff59190611e8c565b50835f803373ffffffffffffffffffffffffffffffffffffffff1673ffffffffffffffffffffffffffffffffffffffff1681526020019081526020015f2060030190816110429190611e8c565b50825f803373ffffffffffffffffffffffffffffffffffffffff1673ffffffffffffffffffffffffffffffffffffffff1681526020019081526020015f20600401819055506110908261114e565b5f803373ffffffffffffffffffffffffffffffffffffffff1673ffffffffffffffffffffffffffffffffffffffff1681526020019081526020015f20600601819055503373ffffffffffffffffffffffffffffffffffffffff167fd6136f3cad7c60bfc24bbf1548f39f766ca8bce104bf9adde3deb6237dec51df876040516111199190612017565b60405180910390a2505050505050565b60035f9054906101000a900473ffffffffffffffffffffffffffffffffffffffff1681565b5f816040516020016111609190611916565b604051602081830303815290604052805190602001209050919050565b5f8160405160200161118f9190611916565b604051602081830303815290604052805190602001209050919050565b5080546111b890611cbf565b5f825580601f106111c957506111e6565b601f0160209004905f5260205f20908101906111e591906111e9565b5b50565b5b80821115611200575f815f9055506001016111ea565b5090565b5f82825260208201905092915050565b7f5468697320636f6e747261637420646f6573206e6f74206163636570742070615f8201527f796d656e74730000000000000000000000000000000000000000000000000000602082015250565b5f61126e602683611204565b915061127982611214565b604082019050919050565b5f6020820190508181035f83015261129b81611262565b9050919050565b5f604051905090565b5f80fd5b5f80fd5b5f819050919050565b6112c5816112b3565b81146112cf575f80fd5b50565b5f813590506112e0816112bc565b92915050565b5f602082840312156112fb576112fa6112ab565b5b5f611308848285016112d2565b91505092915050565b5f73ffffffffffffffffffffffffffffffffffffffff82169050919050565b5f61133a82611311565b9050919050565b61134a81611330565b82525050565b5f6020820190506113635f830184611341565b92915050565b5f80fd5b5f80fd5b5f601f19601f8301169050919050565b7f4e487b71000000000000000000000000000000000000000000000000000000005f52604160045260245ffd5b6113b782611371565b810181811067ffffffffffffffff821117156113d6576113d5611381565b5b80604052505050565b5f6113e86112a2565b90506113f482826113ae565b919050565b5f67ffffffffffffffff82111561141357611412611381565b5b61141c82611371565b9050602081019050919050565b828183375f83830152505050565b5f611449611444846113f9565b6113df565b9050828152602081018484840111156114655761146461136d565b5b611470848285611429565b509392505050565b5f82601f83011261148c5761148b611369565b5b813561149c848260208601611437565b91505092915050565b5f80604083850312156114bb576114ba6112ab565b5b5f83013567ffffffffffffffff8111156114d8576114d76112af565b5b6114e485828601611478565b925050602083013567ffffffffffffffff811115611505576115046112af565b5b61151185828601611478565b9150509250929050565b5f8115159050919050565b61152f8161151b565b82525050565b5f6020820190506115485f830184611526565b92915050565b61155781611330565b8114611561575f80fd5b50565b5f813590506115728161154e565b92915050565b5f6020828403121561158d5761158c6112ab565b5b5f61159a84828501611564565b91505092915050565b5f805f805f805f60e0888a0312156115be576115bd6112ab565b5b5f88013567ffffffffffffffff8111156115db576115da6112af565b5b6115e78a828b01611478565b975050602088013567ffffffffffffffff811115611608576116076112af565b5b6116148a828b01611478565b965050604088013567ffffffffffffffff811115611635576116346112af565b5b6116418a828b01611478565b95505060606116528a828b016112d2565b945050608088013567ffffffffffffffff811115611673576116726112af565b5b61167f8a828b01611478565b93505060a088013567ffffffffffffffff8111156116a05761169f6112af565b5b6116ac8a828b01611478565b92505060c088013567ffffffffffffffff8111156116cd576116cc6112af565b5b6116d98a828b01611478565b91505092959891949750929550565b6116f1816112b3565b82525050565b5f81519050919050565b5f5b8381101561171e578082015181840152602081019050611703565b5f8484015250505050565b5f611733826116f7565b61173d8185611204565b935061174d818560208601611701565b61175681611371565b840191505092915050565b5f60a0820190506117745f8301886116e8565b81810360208301526117868187611729565b9050818103604083015261179a8186611729565b905081810360608301526117ae8185611729565b90506117bd60808301846116e8565b9695505050505050565b5f805f805f8060c087890312156117e1576117e06112ab565b5b5f87013567ffffffffffffffff8111156117fe576117fd6112af565b5b61180a89828a01611478565b965050602087013567ffffffffffffffff81111561182b5761182a6112af565b5b61183789828a01611478565b955050604087013567ffffffffffffffff811115611858576118576112af565b5b61186489828a01611478565b945050606061187589828a016112d2565b935050608087013567ffffffffffffffff811115611896576118956112af565b5b6118a289828a01611478565b92505060a087013567ffffffffffffffff8111156118c3576118c26112af565b5b6118cf89828a01611478565b9150509295509295509295565b5f81905092915050565b5f6118f0826116f7565b6118fa81856118dc565b935061190a818560208601611701565b80840191505092915050565b5f61192182846118e6565b915081905092915050565b7f5573657220646f6573206e6f74206578697374000000000000000000000000005f82015250565b5f611960601383611204565b915061196b8261192c565b602082019050919050565b5f6020820190508181035f83015261198d81611954565b9050919050565b7f496e76616c69642070617373776f7264000000000000000000000000000000005f82015250565b5f6119c8601083611204565b91506119d382611994565b602082019050919050565b5f6020820190508181035f8301526119f5816119bc565b9050919050565b7f4f6e6c792061646d696e2063616e20706572666f726d207468697320616374695f8201527f6f6e000000000000000000000000000000000000000000000000000000000000602082015250565b5f611a56602283611204565b9150611a61826119fc565b604082019050919050565b5f6020820190508181035f830152611a8381611a4a565b9050919050565b7f55736572206e6f742072656769737465726564000000000000000000000000005f82015250565b5f611abe601383611204565b9150611ac982611a8a565b602082019050919050565b5f6020820190508181035f830152611aeb81611ab2565b9050919050565b7f5573657220697320616c726561647920726567697374657265640000000000005f82015250565b5f611b26601a83611204565b9150611b3182611af2565b602082019050919050565b5f6020820190508181035f830152611b5381611b1a565b9050919050565b7f557365726e616d6520616c72656164792074616b656e000000000000000000005f82015250565b5f611b8e601683611204565b9150611b9982611b5a565b602082019050919050565b5f6020820190508181035f830152611bbb81611b82565b9050919050565b7f50617373776f72647320646f206e6f74206d61746368000000000000000000005f82015250565b5f611bf6601683611204565b9150611c0182611bc2565b602082019050919050565b5f6020820190508181035f830152611c2381611bea565b9050919050565b7f456d61696c20616c7265616479207573656400000000000000000000000000005f82015250565b5f611c5e601283611204565b9150611c6982611c2a565b602082019050919050565b5f6020820190508181035f830152611c8b81611c52565b9050919050565b7f4e487b71000000000000000000000000000000000000000000000000000000005f52602260045260245ffd5b5f6002820490506001821680611cd657607f821691505b602082108103611ce957611ce8611c92565b5b50919050565b5f819050815f5260205f209050919050565b5f6020601f8301049050919050565b5f82821b905092915050565b5f60088302611d4b7fffffffffffffffffffffffffffffffffffffffffffffffffffffffffffffffff82611d10565b611d558683611d10565b95508019841693508086168417925050509392505050565b5f819050919050565b5f611d90611d8b611d86846112b3565b611d6d565b6112b3565b9050919050565b5f819050919050565b611da983611d76565b611dbd611db582611d97565b848454611d1c565b825550505050565b5f90565b611dd1611dc5565b611ddc818484611da0565b505050565b5b81811015611dff57611df45f82611dc9565b600181019050611de2565b5050565b601f821115611e4457611e1581611cef565b611e1e84611d01565b81016020851015611e2d578190505b611e41611e3985611d01565b830182611de1565b50505b505050565b5f82821c905092915050565b5f611e645f1984600802611e49565b1980831691505092915050565b5f611e7c8383611e55565b9150826002028217905092915050565b611e95826116f7565b67ffffffffffffffff811115611eae57611ead611381565b5b611eb88254611cbf565b611ec3828285611e03565b5f60209050601f831160018114611ef4575f8415611ee2578287015190505b611eec8582611e71565b865550611f53565b601f198416611f0286611cef565b5f5b82811015611f2957848901518255600182019150602085019450602081019050611f04565b86831015611f465784890151611f42601f891682611e55565b8355505b6001600288020188555050505b505050505050565b5f604082019050611f6e5f8301856116e8565b8181036020830152611f808184611729565b90509392505050565b7f557365726e616d6520616c72656164792074616b656e20627920616e6f7468655f8201527f7220757365720000000000000000000000000000000000000000000000000000602082015250565b5f611fe3602683611204565b9150611fee82611f89565b604082019050919050565b5f6020820190508181035f83015261201081611fd7565b9050919050565b5f6020820190508181035f83015261202f8184611729565b90509291505056fea26469706673582212203de5944580f50d9544bb5bef78733ecd8ce2380002780dae0987fe566ad2c92364736f6c63430008150033",
  "immutableReferences": {},
  "source": "// SPDX-License-Identifier: MIT\npragma solidity ^0.8.0;\n\ncontract Registration {\n    struct User {\n        uint256 uniqueID;\n        string username;\n        string firstName;\n        string lastName;\n        uint256 age;\n        bool isRegistered;\n        bytes32 passwordHash; // Store the hash of the password for security\n    }\n\n    mapping(address => User) private users;\n    mapping(string => address) private usernames; // Mapping for unique usernames\n    mapping(bytes32 => bool) private emailHashes; // Mapping to track unique email hashes\n    address public admin;\n    address[] public userAddresses; // Store user addresses for easy access\n\n    event UserRegistered(address indexed userAddress, uint256 uniqueID, string username);\n    event UserUpdated(address indexed userAddress, string username);\n    event UserRemoved(address indexed userAddress);\n\n    constructor() {\n        admin = msg.sender; // Admin is the contract deployer\n    }\n\n    modifier onlyAdmin() {\n        require(msg.sender == admin, \"Only admin can perform this action\");\n        _;\n    }\n\n    modifier onlyRegistered() {\n        require(users[msg.sender].isRegistered, \"User not registered\");\n        _;\n    }\n\n    function hashPassword(string memory password) internal pure returns (bytes32) {\n        return keccak256(abi.encodePacked(password));\n    }\n\n    function hashEmail(string memory email) internal pure returns (bytes32) {\n        return keccak256(abi.encodePacked(email));\n    }\n\n    // Check if user is registered\n    function isUserRegistered() public view returns (bool) {\n        return users[msg.sender].isRegistered;\n    }\n\n    // Register a new user\n    function registerUser(\n        string memory _username,\n        string memory _firstName,\n        string memory _lastName,\n        uint256 _age,\n        string memory _email,\n        string memory newPassword,\n        string memory confirmPassword\n    ) public {\n        require(!users[msg.sender].isRegistered, \"User is already registered\");\n        require(usernames[_username] == address(0), \"Username already taken\");\n        require(keccak256(abi.encodePacked(newPassword)) == keccak256(abi.encodePacked(confirmPassword)), \"Passwords do not match\");\n\n        bytes32 hashedEmail = hashEmail(_email);\n        require(!emailHashes[hashedEmail], \"Email already used\");\n\n        uint256 uniqueID = uint256(uint160(msg.sender)); // Use address as unique ID\n        bytes32 passwordHash = hashPassword(newPassword);\n\n        users[msg.sender] = User(uniqueID, _username, _firstName, _lastName, _age, true, passwordHash);\n        usernames[_username] = msg.sender;\n        emailHashes[hashedEmail] = true; // Mark this email hash as used\n        userAddresses.push(msg.sender);\n\n        emit UserRegistered(msg.sender, uniqueID, _username);\n    }\n\n    // Update user profile\n    function updateUser(\n        string memory _username,\n        string memory _firstName,\n        string memory _lastName,\n        uint256 _age,\n        string memory newPassword,\n        string memory confirmPassword\n    ) public onlyRegistered {\n        require(usernames[_username] == address(0) || usernames[_username] == msg.sender, \"Username already taken by another user\");\n        require(keccak256(abi.encodePacked(newPassword)) == keccak256(abi.encodePacked(confirmPassword)), \"Passwords do not match\");\n\n        users[msg.sender].username = _username;\n        users[msg.sender].firstName = _firstName;\n        users[msg.sender].lastName = _lastName;\n        users[msg.sender].age = _age;\n        users[msg.sender].passwordHash = hashPassword(newPassword);\n\n        emit UserUpdated(msg.sender, _username);\n    }\n\n    // Admin-only user removal\n    function removeUser(address userAddress) public onlyAdmin {\n        require(users[userAddress].isRegistered, \"User not registered\");\n        delete users[userAddress];\n        emit UserRemoved(userAddress);\n    }\n\n    // Fetch a user's profile for UI\n    function getUserDetails(address userAddress) public view returns (\n        uint256 uniqueID, \n        string memory username, \n        string memory firstName, \n        string memory lastName, \n        uint256 age\n    ) {\n        require(users[userAddress].isRegistered, \"User not registered\");\n        User memory user = users[userAddress];\n        return (user.uniqueID, user.username, user.firstName, user.lastName, user.age);\n    }\n\n    // // Fetch all registered users\n    // function getAllUsers() public view returns (address[] memory) {\n    //     return userAddresses;\n    // }\n\n    // Login with username and password\n    function login(string memory _username, string memory password) public view returns (bool) {\n        address userAddress = usernames[_username];\n        require(userAddress != address(0), \"User does not exist\");\n        require(users[userAddress].passwordHash == hashPassword(password), \"Invalid password\");\n        return true; // Login successful\n    }\n\n    // Prevent accidental Ether transfers\n    fallback() external {\n        revert(\"This contract does not accept payments\");\n    }\n}",
  "sourcePath": "/mnt/c/Users/dell/Documents/SocialX/contracts/registration.sol",
  "compiler": {
    "name": "solc",
    "version": "0.8.21+commit.d9974bed.Emscripten.clang"
  },
  "schemaVersion": "3.4.16",
  "updatedAt": "2024-09-27T21:01:17.263Z",
  "networkType": "ethereum",
  "devdoc": {
    "kind": "dev",
    "methods": {},
    "version": 1
  },
  "userdoc": {
    "kind": "user",
    "methods": {},
    "version": 1
  }
}