{
  "contractName": "Registration",
  "abi": [
    {
      "inputs": [],
      "stateMutability": "nonpayable",
      "type": "constructor"
    },
    {
      "anonymous": false,
      "inputs": [
        {
          "indexed": true,
          "internalType": "address",
          "name": "userAddress",
          "type": "address"
        },
        {
          "indexed": false,
          "internalType": "uint256",
          "name": "uniqueID",
          "type": "uint256"
        },
        {
          "indexed": false,
          "internalType": "string",
          "name": "username",
          "type": "string"
        }
      ],
      "name": "UserRegistered",
      "type": "event"
    },
    {
      "anonymous": false,
      "inputs": [
        {
          "indexed": true,
          "internalType": "address",
          "name": "userAddress",
          "type": "address"
        }
      ],
      "name": "UserRemoved",
      "type": "event"
    },
    {
      "stateMutability": "nonpayable",
      "type": "fallback"
    },
    {
      "inputs": [],
      "name": "admin",
      "outputs": [
        {
          "internalType": "address",
          "name": "",
          "type": "address"
        }
      ],
      "stateMutability": "view",
      "type": "function",
      "constant": true
    },
    {
      "inputs": [
        {
          "internalType": "uint256",
          "name": "",
          "type": "uint256"
        }
      ],
      "name": "userAddresses",
      "outputs": [
        {
          "internalType": "address",
          "name": "",
          "type": "address"
        }
      ],
      "stateMutability": "view",
      "type": "function",
      "constant": true
    },
    {
      "inputs": [],
      "name": "isUserRegistered",
      "outputs": [
        {
          "internalType": "bool",
          "name": "",
          "type": "bool"
        }
      ],
      "stateMutability": "view",
      "type": "function",
      "constant": true
    },
    {
      "inputs": [
        {
          "internalType": "string",
          "name": "_username",
          "type": "string"
        },
        {
          "internalType": "string",
          "name": "_firstName",
          "type": "string"
        },
        {
          "internalType": "string",
          "name": "_lastName",
          "type": "string"
        },
        {
          "internalType": "uint256",
          "name": "_dob",
          "type": "uint256"
        },
        {
          "internalType": "string",
          "name": "_email",
          "type": "string"
        }
      ],
      "name": "registerUser",
      "outputs": [],
      "stateMutability": "nonpayable",
      "type": "function"
    },
    {
      "inputs": [
        {
          "internalType": "string",
          "name": "_username",
          "type": "string"
        },
        {
          "internalType": "string",
          "name": "_firstName",
          "type": "string"
        },
        {
          "internalType": "string",
          "name": "_lastName",
          "type": "string"
        },
        {
          "internalType": "uint256",
          "name": "_dob",
          "type": "uint256"
        }
      ],
      "name": "updateUser",
      "outputs": [],
      "stateMutability": "nonpayable",
      "type": "function"
    },
    {
      "inputs": [
        {
          "internalType": "address",
          "name": "userAddress",
          "type": "address"
        }
      ],
      "name": "removeUser",
      "outputs": [],
      "stateMutability": "nonpayable",
      "type": "function"
    },
    {
      "inputs": [
        {
          "internalType": "address",
          "name": "userAddress",
          "type": "address"
        }
      ],
      "name": "getUserDetails",
      "outputs": [
        {
          "internalType": "uint256",
          "name": "uniqueID",
          "type": "uint256"
        },
        {
          "internalType": "string",
          "name": "username",
          "type": "string"
        },
        {
          "internalType": "string",
          "name": "firstName",
          "type": "string"
        },
        {
          "internalType": "string",
          "name": "lastName",
          "type": "string"
        },
        {
          "internalType": "uint256",
          "name": "dateOfBirth",
          "type": "uint256"
        }
      ],
      "stateMutability": "view",
      "type": "function",
      "constant": true
    },
    {
      "inputs": [],
      "name": "getAllUsers",
      "outputs": [
        {
          "internalType": "address[]",
          "name": "",
          "type": "address[]"
        }
      ],
      "stateMutability": "view",
      "type": "function",
      "constant": true
    }
  ],
  "bytecode": "0x608060405234801561000f575f80fd5b503360035f6101000a81548173ffffffffffffffffffffffffffffffffffffffff021916908373ffffffffffffffffffffffffffffffffffffffff160217905550611bd98061005d5f395ff3fe608060405234801561000f575f80fd5b506004361061008a575f3560e01c8063c1976b8311610059578063c1976b831461014c578063cc3d967b14610168578063e2842d791461019c578063f851a440146101ba5761008b565b8063502c9bd5146100c6578063873138f3146100f65780639857518814610114578063b0cace06146101305761008b565b5b6040517f08c379a00000000000000000000000000000000000000000000000000000000081526004016100bd90610fa2565b60405180910390fd5b6100e060048036038101906100db9190611004565b6101d8565b6040516100ed919061106e565b60405180910390f35b6100fe610213565b60405161010b91906110a1565b60405180910390f35b61012e600480360381019061012991906110e4565b610265565b005b61014a6004803603810190610145919061124b565b610451565b005b61016660048036038101906101619190611332565b61082c565b005b610182600480360381019061017d91906110e4565b610b06565b604051610193959493929190611463565b60405180910390f35b6101a4610deb565b6040516101b19190611580565b60405180910390f35b6101c2610e76565b6040516101cf919061106e565b60405180910390f35b600481815481106101e7575f80fd5b905f5260205f20015f915054906101000a900473ffffffffffffffffffffffffffffffffffffffff1681565b5f805f3373ffffffffffffffffffffffffffffffffffffffff1673ffffffffffffffffffffffffffffffffffffffff1681526020019081526020015f206005015f9054906101000a900460ff16905090565b60035f9054906101000a900473ffffffffffffffffffffffffffffffffffffffff1673ffffffffffffffffffffffffffffffffffffffff163373ffffffffffffffffffffffffffffffffffffffff16146102f4576040517f08c379a00000000000000000000000000000000000000000000000000000000081526004016102eb90611610565b60405180910390fd5b5f808273ffffffffffffffffffffffffffffffffffffffff1673ffffffffffffffffffffffffffffffffffffffff1681526020019081526020015f206005015f9054906101000a900460ff1661037f576040517f08c379a000000000000000000000000000000000000000000000000000000000815260040161037690611678565b60405180910390fd5b5f808273ffffffffffffffffffffffffffffffffffffffff1673ffffffffffffffffffffffffffffffffffffffff1681526020019081526020015f205f8082015f9055600182015f6103d19190610eca565b600282015f6103e09190610eca565b600382015f6103ef9190610eca565b600482015f9055600582015f6101000a81549060ff021916905550508073ffffffffffffffffffffffffffffffffffffffff167fe9dce8c992623ce791725b21e857e33248d1f190a25b5168313420eebdaae99d60405160405180910390a250565b5f803373ffffffffffffffffffffffffffffffffffffffff1673ffffffffffffffffffffffffffffffffffffffff1681526020019081526020015f206005015f9054906101000a900460ff16156104dd576040517f08c379a00000000000000000000000000000000000000000000000000000000081526004016104d4906116e0565b60405180910390fd5b5f73ffffffffffffffffffffffffffffffffffffffff166001866040516105049190611738565b90815260200160405180910390205f9054906101000a900473ffffffffffffffffffffffffffffffffffffffff1673ffffffffffffffffffffffffffffffffffffffff1614610588576040517f08c379a000000000000000000000000000000000000000000000000000000000815260040161057f90611798565b60405180910390fd5b5f61059282610e9b565b905060025f8281526020019081526020015f205f9054906101000a900460ff16156105f2576040517f08c379a00000000000000000000000000000000000000000000000000000000081526004016105e990611800565b60405180910390fd5b5f3373ffffffffffffffffffffffffffffffffffffffff1690506040518060c00160405280828152602001888152602001878152602001868152602001858152602001600115158152505f803373ffffffffffffffffffffffffffffffffffffffff1673ffffffffffffffffffffffffffffffffffffffff1681526020019081526020015f205f820151815f015560208201518160010190816106959190611a18565b5060408201518160020190816106ab9190611a18565b5060608201518160030190816106c19190611a18565b506080820151816004015560a0820151816005015f6101000a81548160ff021916908315150217905550905050336001886040516106ff9190611738565b90815260200160405180910390205f6101000a81548173ffffffffffffffffffffffffffffffffffffffff021916908373ffffffffffffffffffffffffffffffffffffffff160217905550600160025f8481526020019081526020015f205f6101000a81548160ff021916908315150217905550600433908060018154018082558091505060019003905f5260205f20015f9091909190916101000a81548173ffffffffffffffffffffffffffffffffffffffff021916908373ffffffffffffffffffffffffffffffffffffffff1602179055503373ffffffffffffffffffffffffffffffffffffffff167fbc6cd93a5a69dae46517fc4b81c3c705973b0fabb816aae5d0ff7a077c4d5d18828960405161081b929190611ae7565b60405180910390a250505050505050565b5f803373ffffffffffffffffffffffffffffffffffffffff1673ffffffffffffffffffffffffffffffffffffffff1681526020019081526020015f206005015f9054906101000a900460ff166108b7576040517f08c379a00000000000000000000000000000000000000000000000000000000081526004016108ae90611678565b60405180910390fd5b5f73ffffffffffffffffffffffffffffffffffffffff166001856040516108de9190611738565b90815260200160405180910390205f9054906101000a900473ffffffffffffffffffffffffffffffffffffffff1673ffffffffffffffffffffffffffffffffffffffff16148061099657503373ffffffffffffffffffffffffffffffffffffffff166001856040516109509190611738565b90815260200160405180910390205f9054906101000a900473ffffffffffffffffffffffffffffffffffffffff1673ffffffffffffffffffffffffffffffffffffffff16145b6109d5576040517f08c379a00000000000000000000000000000000000000000000000000000000081526004016109cc90611b85565b60405180910390fd5b835f803373ffffffffffffffffffffffffffffffffffffffff1673ffffffffffffffffffffffffffffffffffffffff1681526020019081526020015f206001019081610a219190611a18565b50825f803373ffffffffffffffffffffffffffffffffffffffff1673ffffffffffffffffffffffffffffffffffffffff1681526020019081526020015f206002019081610a6e9190611a18565b50815f803373ffffffffffffffffffffffffffffffffffffffff1673ffffffffffffffffffffffffffffffffffffffff1681526020019081526020015f206003019081610abb9190611a18565b50805f803373ffffffffffffffffffffffffffffffffffffffff1673ffffffffffffffffffffffffffffffffffffffff1681526020019081526020015f206004018190555050505050565b5f60608060605f805f8773ffffffffffffffffffffffffffffffffffffffff1673ffffffffffffffffffffffffffffffffffffffff1681526020019081526020015f206005015f9054906101000a900460ff16610b98576040517f08c379a0000000000000000000000000000000000000000000000000000000008152600401610b8f90611678565b60405180910390fd5b5f805f8873ffffffffffffffffffffffffffffffffffffffff1673ffffffffffffffffffffffffffffffffffffffff1681526020019081526020015f206040518060c00160405290815f8201548152602001600182018054610bf99061184b565b80601f0160208091040260200160405190810160405280929190818152602001828054610c259061184b565b8015610c705780601f10610c4757610100808354040283529160200191610c70565b820191905f5260205f20905b815481529060010190602001808311610c5357829003601f168201915b50505050508152602001600282018054610c899061184b565b80601f0160208091040260200160405190810160405280929190818152602001828054610cb59061184b565b8015610d005780601f10610cd757610100808354040283529160200191610d00565b820191905f5260205f20905b815481529060010190602001808311610ce357829003601f168201915b50505050508152602001600382018054610d199061184b565b80601f0160208091040260200160405190810160405280929190818152602001828054610d459061184b565b8015610d905780601f10610d6757610100808354040283529160200191610d90565b820191905f5260205f20905b815481529060010190602001808311610d7357829003601f168201915b5050505050815260200160048201548152602001600582015f9054906101000a900460ff1615151515815250509050805f01518160200151826040015183606001518460800151955095509550955095505091939590929450565b60606004805480602002602001604051908101604052809291908181526020018280548015610e6c57602002820191905f5260205f20905b815f9054906101000a900473ffffffffffffffffffffffffffffffffffffffff1673ffffffffffffffffffffffffffffffffffffffff1681526020019060010190808311610e23575b5050505050905090565b60035f9054906101000a900473ffffffffffffffffffffffffffffffffffffffff1681565b5f81604051602001610ead9190611738565b604051602081830303815290604052805190602001209050919050565b508054610ed69061184b565b5f825580601f10610ee75750610f04565b601f0160209004905f5260205f2090810190610f039190610f07565b5b50565b5b80821115610f1e575f815f905550600101610f08565b5090565b5f82825260208201905092915050565b7f5468697320636f6e747261637420646f6573206e6f74206163636570742070615f8201527f796d656e74730000000000000000000000000000000000000000000000000000602082015250565b5f610f8c602683610f22565b9150610f9782610f32565b604082019050919050565b5f6020820190508181035f830152610fb981610f80565b9050919050565b5f604051905090565b5f80fd5b5f80fd5b5f819050919050565b610fe381610fd1565b8114610fed575f80fd5b50565b5f81359050610ffe81610fda565b92915050565b5f6020828403121561101957611018610fc9565b5b5f61102684828501610ff0565b91505092915050565b5f73ffffffffffffffffffffffffffffffffffffffff82169050919050565b5f6110588261102f565b9050919050565b6110688161104e565b82525050565b5f6020820190506110815f83018461105f565b92915050565b5f8115159050919050565b61109b81611087565b82525050565b5f6020820190506110b45f830184611092565b92915050565b6110c38161104e565b81146110cd575f80fd5b50565b5f813590506110de816110ba565b92915050565b5f602082840312156110f9576110f8610fc9565b5b5f611106848285016110d0565b91505092915050565b5f80fd5b5f80fd5b5f601f19601f8301169050919050565b7f4e487b71000000000000000000000000000000000000000000000000000000005f52604160045260245ffd5b61115d82611117565b810181811067ffffffffffffffff8211171561117c5761117b611127565b5b80604052505050565b5f61118e610fc0565b905061119a8282611154565b919050565b5f67ffffffffffffffff8211156111b9576111b8611127565b5b6111c282611117565b9050602081019050919050565b828183375f83830152505050565b5f6111ef6111ea8461119f565b611185565b90508281526020810184848401111561120b5761120a611113565b5b6112168482856111cf565b509392505050565b5f82601f8301126112325761123161110f565b5b81356112428482602086016111dd565b91505092915050565b5f805f805f60a0868803121561126457611263610fc9565b5b5f86013567ffffffffffffffff81111561128157611280610fcd565b5b61128d8882890161121e565b955050602086013567ffffffffffffffff8111156112ae576112ad610fcd565b5b6112ba8882890161121e565b945050604086013567ffffffffffffffff8111156112db576112da610fcd565b5b6112e78882890161121e565b93505060606112f888828901610ff0565b925050608086013567ffffffffffffffff81111561131957611318610fcd565b5b6113258882890161121e565b9150509295509295909350565b5f805f806080858703121561134a57611349610fc9565b5b5f85013567ffffffffffffffff81111561136757611366610fcd565b5b6113738782880161121e565b945050602085013567ffffffffffffffff81111561139457611393610fcd565b5b6113a08782880161121e565b935050604085013567ffffffffffffffff8111156113c1576113c0610fcd565b5b6113cd8782880161121e565b92505060606113de87828801610ff0565b91505092959194509250565b6113f381610fd1565b82525050565b5f81519050919050565b5f5b83811015611420578082015181840152602081019050611405565b5f8484015250505050565b5f611435826113f9565b61143f8185610f22565b935061144f818560208601611403565b61145881611117565b840191505092915050565b5f60a0820190506114765f8301886113ea565b8181036020830152611488818761142b565b9050818103604083015261149c818661142b565b905081810360608301526114b0818561142b565b90506114bf60808301846113ea565b9695505050505050565b5f81519050919050565b5f82825260208201905092915050565b5f819050602082019050919050565b6114fb8161104e565b82525050565b5f61150c83836114f2565b60208301905092915050565b5f602082019050919050565b5f61152e826114c9565b61153881856114d3565b9350611543836114e3565b805f5b8381101561157357815161155a8882611501565b975061156583611518565b925050600181019050611546565b5085935050505092915050565b5f6020820190508181035f8301526115988184611524565b905092915050565b7f4f6e6c792061646d696e2063616e20706572666f726d207468697320616374695f8201527f6f6e000000000000000000000000000000000000000000000000000000000000602082015250565b5f6115fa602283610f22565b9150611605826115a0565b604082019050919050565b5f6020820190508181035f830152611627816115ee565b9050919050565b7f55736572206e6f742072656769737465726564000000000000000000000000005f82015250565b5f611662601383610f22565b915061166d8261162e565b602082019050919050565b5f6020820190508181035f83015261168f81611656565b9050919050565b7f5573657220697320616c726561647920726567697374657265640000000000005f82015250565b5f6116ca601a83610f22565b91506116d582611696565b602082019050919050565b5f6020820190508181035f8301526116f7816116be565b9050919050565b5f81905092915050565b5f611712826113f9565b61171c81856116fe565b935061172c818560208601611403565b80840191505092915050565b5f6117438284611708565b915081905092915050565b7f557365726e616d6520616c72656164792074616b656e000000000000000000005f82015250565b5f611782601683610f22565b915061178d8261174e565b602082019050919050565b5f6020820190508181035f8301526117af81611776565b9050919050565b7f456d61696c20616c7265616479207573656400000000000000000000000000005f82015250565b5f6117ea601283610f22565b91506117f5826117b6565b602082019050919050565b5f6020820190508181035f830152611817816117de565b9050919050565b7f4e487b71000000000000000000000000000000000000000000000000000000005f52602260045260245ffd5b5f600282049050600182168061186257607f821691505b6020821081036118755761187461181e565b5b50919050565b5f819050815f5260205f209050919050565b5f6020601f8301049050919050565b5f82821b905092915050565b5f600883026118d77fffffffffffffffffffffffffffffffffffffffffffffffffffffffffffffffff8261189c565b6118e1868361189c565b95508019841693508086168417925050509392505050565b5f819050919050565b5f61191c61191761191284610fd1565b6118f9565b610fd1565b9050919050565b5f819050919050565b61193583611902565b61194961194182611923565b8484546118a8565b825550505050565b5f90565b61195d611951565b61196881848461192c565b505050565b5b8181101561198b576119805f82611955565b60018101905061196e565b5050565b601f8211156119d0576119a18161187b565b6119aa8461188d565b810160208510156119b9578190505b6119cd6119c58561188d565b83018261196d565b50505b505050565b5f82821c905092915050565b5f6119f05f19846008026119d5565b1980831691505092915050565b5f611a0883836119e1565b9150826002028217905092915050565b611a21826113f9565b67ffffffffffffffff811115611a3a57611a39611127565b5b611a44825461184b565b611a4f82828561198f565b5f60209050601f831160018114611a80575f8415611a6e578287015190505b611a7885826119fd565b865550611adf565b601f198416611a8e8661187b565b5f5b82811015611ab557848901518255600182019150602085019450602081019050611a90565b86831015611ad25784890151611ace601f8916826119e1565b8355505b6001600288020188555050505b505050505050565b5f604082019050611afa5f8301856113ea565b8181036020830152611b0c818461142b565b90509392505050565b7f557365726e616d6520616c72656164792074616b656e20627920616e6f7468655f8201527f7220757365720000000000000000000000000000000000000000000000000000602082015250565b5f611b6f602683610f22565b9150611b7a82611b15565b604082019050919050565b5f6020820190508181035f830152611b9c81611b63565b905091905056fea2646970667358221220fd6bafe46a952e2b347d3d9939d570b762f0a7013be8fa01f183a5aba2a487d164736f6c63430008150033",
  "immutableReferences": {},
  "source": "// SPDX-License-Identifier: MIT\r\npragma solidity ^0.8.0;\r\n\r\ncontract Registration {\r\n    struct User {\r\n        uint256 uniqueID;\r\n        string username;\r\n        string firstName;\r\n        string lastName;\r\n        uint256 dateOfBirth; // Store as timestamp\r\n        bool isRegistered;\r\n    }\r\n\r\n    mapping(address => User) private users;\r\n    mapping(string => address) private usernames; // Mapping for unique usernames\r\n    mapping(bytes32 => bool) private emailHashes; // Mapping to track unique email hashes\r\n    address public admin;\r\n    address[] public userAddresses; // Store user addresses for easy access\r\n\r\n    event UserRegistered(address indexed userAddress, uint256 uniqueID, string username);\r\n    event UserRemoved(address indexed userAddress);\r\n\r\n    constructor() {\r\n        admin = msg.sender; // Admin is the contract deployer\r\n    }\r\n\r\n    modifier onlyAdmin() {\r\n        require(msg.sender == admin, \"Only admin can perform this action\");\r\n        _;\r\n    }\r\n\r\n    modifier onlyRegistered() {\r\n        require(users[msg.sender].isRegistered, \"User not registered\");\r\n        _;\r\n    }\r\n\r\n    function hashEmail(string memory email) internal pure returns (bytes32) {\r\n        return keccak256(abi.encodePacked(email));\r\n    }\r\n\r\n    // Check if user is registered\r\n    function isUserRegistered() public view returns (bool) {\r\n        return users[msg.sender].isRegistered;\r\n    }\r\n\r\n    // Register a new user\r\n    function registerUser(string memory _username,string memory _firstName,string memory _lastName,uint256 _dob,string memory _email) public {\r\n        require(!users[msg.sender].isRegistered, \"User is already registered\");\r\n        require(usernames[_username] == address(0), \"Username already taken\");\r\n\r\n        bytes32 hashedEmail = hashEmail(_email);\r\n        require(!emailHashes[hashedEmail], \"Email already used\");\r\n\r\n        uint256 uniqueID = uint256(uint160(msg.sender)); // Use address as unique ID\r\n        users[msg.sender] = User(uniqueID, _username, _firstName, _lastName, _dob, true);\r\n        usernames[_username] = msg.sender;\r\n        emailHashes[hashedEmail] = true; // Mark this email hash as used\r\n        userAddresses.push(msg.sender);\r\n\r\n        emit UserRegistered(msg.sender, uniqueID, _username);\r\n    }\r\n\r\n    // Update user profile\r\n    function updateUser(string memory _username, string memory _firstName, string memory _lastName, uint256 _dob) public onlyRegistered {\r\n        require(usernames[_username] == address(0) || usernames[_username] == msg.sender, \"Username already taken by another user\");\r\n\r\n        users[msg.sender].username = _username;\r\n        users[msg.sender].firstName = _firstName;\r\n        users[msg.sender].lastName = _lastName;\r\n        users[msg.sender].dateOfBirth = _dob;\r\n    }\r\n\r\n    // Admin-only user removal\r\n    function removeUser(address userAddress) public onlyAdmin {\r\n        require(users[userAddress].isRegistered, \"User not registered\");\r\n        delete users[userAddress];\r\n        emit UserRemoved(userAddress);\r\n    }\r\n\r\n    // Fetch a user's profile for UI\r\n    function getUserDetails(address userAddress) public view returns (\r\n        uint256 uniqueID, \r\n        string memory username, \r\n        string memory firstName, \r\n        string memory lastName, \r\n        uint256 dateOfBirth\r\n    ) {\r\n        require(users[userAddress].isRegistered, \"User not registered\");\r\n        User memory user = users[userAddress];\r\n        return (user.uniqueID, user.username, user.firstName, user.lastName, user.dateOfBirth);\r\n    }\r\n\r\n    // Fetch all registered users\r\n    function getAllUsers() public view returns (address[] memory) {\r\n        return userAddresses;\r\n    }\r\n\r\n    // Prevent accidental Ether transfers\r\n    fallback() external {\r\n        revert(\"This contract does not accept payments\");\r\n    }\r\n}\r\n",
  "sourcePath": "/mnt/c/Users/dell/Documents/SocialX/contracts/registration.sol",
  "compiler": {
    "name": "solc",
    "version": "0.8.21+commit.d9974bed.Emscripten.clang"
  },
  "schemaVersion": "3.4.16",
  "updatedAt": "2024-09-26T21:23:57.305Z",
  "networkType": "ethereum",
  "devdoc": {
    "kind": "dev",
    "methods": {},
    "version": 1
  },
  "userdoc": {
    "kind": "user",
    "methods": {},
    "version": 1
  }
}